:10000000021584EFC39404E494004004E4FEFF224C
:10001000EF25E02461F582E43401F583E0FEA3E0FE
:02002000FF22BD
:10002300021AC7E5AE54107E0060047F0180027F90
:0F00330000EF64014E60EC43AE102253AEDF22AB
:070043000216AE07060504DA
:0E004B00021C19AF4DEF7005754D14F54C22D7
:10005B000218288B278A288929E4F52AC3E52A94D4
:10006B0005748094804003020213E52A75F007A4FF
:10007B00AB272529F9E52835F0FA900006120986F9
:10008B00605BAA28A92975F007E52AA4F58285F0FB
:10009B0083120A1AFBAAF07C007D64FFAE021209E0
:1000AB00C58F2B7C007D64AF03AE021209C57E00A9
:1000BB007F0ACFCDCFCECCCE1209C58F2CAB27AAC2
:1000CB002875F007E52AA4F58285F083120A1AFF3A
:1000DB00AEF07C007D0A1209C58D2D8007E4F52B4F
:1000EB00F52CF52DE52B7067E52C7063E52D705F16
:1000FB00901DE293FF4401FEE52A25E0240AF582D8
:10010B00E4341EF583E49325E024F7F582E4340010
:10011B00F583EEF0E52A25E0240AF582E4341EF59A
:10012B0083E49325E024F8F582E43400F583EFF0C3
:10013B00E52A25E0240BF582E4341EF583E49325B0
:10014B00E024F7F582E43400F583EEF00201F2E5EA
:10015B002C25E024E2F582E4341DF583E49344017D
:10016B00FFE52A25E0240AF582E4341EF583E493A7
:10017B0025E024F7F582E43400F583EFF0E52C2538
:10018B00E024E3F582E4341DF583E493FFE52A25AF
:10019B00E0240AF582E4341EF583E49325E024F889
:1001AB00F582E43400F583EFF0E52D25E024E2F54C
:1001BB0082E4341DF583E4934401FFE52A25E02412
:1001CB000BF582E4341EF583E49325E024F7F582E6
:1001DB00E43400F583EFF0E52D25E024E3F582E42C
:1001EB00341DF583E493FFE52A25E0240BF582E427
:1001FB00341EF583E49325E024F8F582E43400F50E
:10020B0083EFF0052A020067E4F52AC3E52A94057B
:10021B007480948040030203CEE52A75F007A4ABEB
:10022B00272529F9E52835F0FA900002120A1AFB66
:10023B00AAF07C007D64FFAE021209C58F2B7C00F7
:10024B007D64AF03AE021209C57E007F0ACFCDCF0E
:10025B00CECCCE1209C58F2CE52A75F007A4AB279F
:10026B002529F9E52835F0FA900002120A1AFFAE9B
:10027B00F07C007D0A1209C58D2DE52B600302036E
:10028B0017E52C25E024F6F582E4341DF583E49381
:10029B00FFE52A25E02414F582E4341EF583E4936C
:1002AB0025E024F7F582E43400F583EFF0E52C2507
:1002BB00E024F7F582E4341DF583E4934408FFE56D
:1002CB002A25E02414F582E4341EF583E49325E01B
:1002DB0024F8F582E43400F583EFF0E52D25E024D6
:1002EB00F6F582E4341DF583E493FFE52A25E0243B
:1002FB0015F582E4341EF583E49325E024F7F582AB
:10030B00E43400F583EFF0E52D02039DE52B25E0AA
:10031B0024F6F582E4341DF583E493FFE52A25E00A
:10032B002414F582E4341EF583E49325E024F7F5D9
:10033B0082E43400F583EFF0E52B25E024F7F5821A
:10034B00E4341DF583E493FFE52A25E02414F582BC
:10035B00E4341EF583E49325E024F8F582E43400BD
:10036B00F583EFF0E52C25E024F6F582E4341DF55A
:10037B0083E493FFE52A25E02415F582E4341EF58A
:10038B0083E49325E024F7F582E43400F583EFF062
:10039B00E52C25E024F7F582E4341DF583E4934442
:1003AB0008FFE52A25E02415F582E4341EF583E4E5
:1003BB009325E024F8F582E43400F583EFF0052A69
:1003CB00020216E4F52AC3E52A9405748094804052
:1003DB0003020724E52A75F007A4AB272529F9E5C5
:1003EB002835F0FA900004120A1AF53085F02FE444
:1003FB00F52E9000061209866053C3E53094E8E5AC
:10040B002F94034012752E01AE2FAF307C007D0A66
:10041B001209C58E2F8F30AE2FAF307C007D64124A
:10042B0009C58F2BAE2FAF307C007D641209C57EC2
:10043B00007F0ACFCDCFCECCCE1209C58F2CAE2FDD
:10044B00AF307C007D0A1209C58D2D8009E4F52B98
:10045B00F52CF52DF52E7435252AF8E4F6743A258E
:10046B002AF87601743F252AF8E4F6AF2BFEEF60ED
:10047B0003020502E52C707FE52D707BE52E70776E
:10048B00901DF693FDE52A25E0241EF582E4341E2B
:10049B00F583E49325E024F7F582E43400F583ED4E
:1004AB00F0E52A25E0241EF582E4341EF583E4935F
:1004BB0025E024F8F582E43400F583EDF0E52A25F8
:1004CB00E0241FF582E4341EF583E49325E024F742
:1004DB00F582E43400F583EDF0E52A25E0241FF5E1
:1004EB0082E4341EF583E49325E024F8F582E434AA
:1004FB0000F583ED0205BFEF4E60030205CAE52E42
:10050B0060030205CAE52C25E024F6F582E4341DD0
:10051B00F583E493FFE52A25E0241EF582E4341EDF
:10052B00F583E49325E024F7F582E43400F583EFBB
:10053B00F0E52C25E024F7F582E4341DF583E493F4
:10054B00FFE52A25E0241EF582E4341EF583E493AF
:10055B0025E024F8F582E43400F583EFF0E52D2552
:10056B00E024F6F582E4341DF583E493FFE52A25B8
:10057B00E0241FF582E4341EF583E49325E024F791
:10058B00F582E43400F583EFF0E52D25E024F7F553
:10059B0082E4341DF583E493FFE52A25E0241FF55F
:1005AB0082E4341EF583E49325E024F8F582E434E9
:1005BB0000F583EFF0743F252AF8760102071FD36D
:1005CB00E52B940074809480500302071FE52E6086
:1005DB0003020668E52B25E024F6F582E4341DF5CD
:1005EB0083E493FFE52A25E0241EF582E4341EF50F
:1005FB0083E49325E024F7F582E43400F583EFF0F0
:10060B00E52B25E024F7F582E4341DF583E493FF15
:10061B00E52A25E0241EF582E4341EF583E49325B8
:10062B00E024F8F582E43400F583EFF0E52C25E0C7
:10063B0024F6F582E4341DF583E493FFE52A25E0E7
:10064B00241FF582E4341EF583E49325E024F7F5AB
:10065B0082E43400F583EFF0E52C0206F5743525C2
:10066B002AF87601E52C25E024F6F582E4341DF515
:10067B0083E493FFE52A25E0241EF582E4341EF57E
:10068B0083E49325E024F7F582E43400F583EFF05F
:10069B00E52C25E024F7F582E4341DF583E493FF84
:1006AB00E52A25E0241EF582E4341EF583E4932528
:1006BB00E024F8F582E43400F583EFF0E52D25E036
:1006CB0024F6F582E4341DF583E493FFE52A25E057
:1006DB00241FF582E4341EF583E49325E024F7F51B
:1006EB0082E43400F583EFF0E52D25E024F7F58265
:1006FB00E4341DF583E493FFE52A25E0241FF582FE
:10070B00E4341EF583E49325E024F8F582E4340009
:10071B00F583EFF0052A0203D1E4900109F0A3F071
:10072B00E53A64017004E04408F0E53664017007B3
:10073B0090010AE04404F0E49000FFF0A3F0E53CE4
:10074B00640170079000FFE04404F0E53864017029
:10075B00079000FFE04402F0E53964017007900058
:10076B00FFE04401F0E53764017013901E229325DE
:10077B00E024F8F582E43400F583E04408F0E53535
:10078B0064017013901E1E9325E024F8F582E43467
:10079B0000F583E04408F0E53F64017013901E1FE1
:1007AB009325E024F8F582E43400F583E04408F067
:1007BB00E54064017013901E209325E024F8F58228
:1007CB00E43400F583E04408F0E5416401701390D4
:1007DB001E239325E024F8F582E43400F583E044EE
:1007EB0008F0E54264017013901E249325E024F871
:1007FB00F582E43400F583E04408F0E543640170CE
:10080B0013901E269325E024F8F582E43400F5833B
:10081B00E04408F0E53B64017013901E219325E042
:10082B0024F8F582E43400F583E04408F0E53D64F8
:10083B00017013901E259325E024F8F582E4340013
:10084B00F583E04408F0E53E64017013901E279396
:10085B0025E024F8F582E43400F583E04408F07BCE
:10086B00017A0079F77D407C00021BEAE709F60864
:10087B00DFFA8046E709F208DFFA803E88828C8334
:10088B00E709F0A3DFFA8032E309F608DFFA807894
:10089B00E309F208DFFA807088828C83E309F0A306
:1008AB00DFFA806489828A83E0A3F608DFFA805836
:1008BB0089828A83E0A3F208DFFA804C80D280FA27
:1008CB0080C680D4806980F28033801080A680EA55
:1008DB00809A80A880DA80E280CA803389828A83FA
:1008EB00ECFAE493A3C8C582C8CCC583CCF0A3C8EB
:1008FB00C582C8CCC583CCDFE9DEE7800D89828A4F
:10090B0083E493A3F608DFF9ECFAA9F0EDFB228957
:10091B00828A83ECFAE0A3C8C582C8CCC583CCF02D
:10092B00A3C8C582C8CCC583CCDFEADEE880DB89EF
:10093B00828A83E493A3F208DFF980CC88F0EF601E
:10094B00010E4E60C388F0ED2402B4040050B9F5DB
:10095B0082EB2402B4040050AF232345822390087A
:10096B00C773BB010689828A83E0225002E722BB50
:10097B00FE02E32289828A83E49322BB010CE58287
:10098B0029F582E5833AF583E0225006E92582F8C2
:10099B00E622BBFE06E92582F8E222E58229F582F2
:1009AB00E5833AF583E49322EF8DF0A4A8F0CF8C86
:1009BB00F0A428CE8DF0A42EFE22BC000BBE002985
:1009CB00EF8DF084FFADF022E4CCF875F008EF2F3B
:1009DB00FFEE33FEEC33FCEE9DEC984005FCEE9DF8
:1009EB00FE0FD5F0E9E4CEFD22EDF8F5F0EE842014
:1009FB00D21CFEADF075F008EF2FFFED33FD400775
:100A0B00985006D5F0F222C398FD0FD5F0EA22BB21
:100A1B000110E58229F582E5833AF583E0F5F0A331
:100A2B00E0225009E92582F886F008E622BBFE0A8F
:100A3B00E92582F8E2F5F008E222E5832AF583E95D
:100A4B0093F5F0A3E99322E88FF0A4CC8BF0A42CC0
:100A5B00FCE98EF0A42CFC8AF0EDA42CFCEA8EF0C1
:100A6B00A4CDA8F08BF0A42DCC3825F0FDE98FF0A8
:100A7B00A42CCD35F0FCEB8EF0A4FEA9F0EB8FF09F
:100A8B00A4CFC5F02ECD39FEE43CFCEAA42DCE3527
:100A9B00F0FDE43CFC2275F008758200EF2FFFEEB1
:100AAB0033FECD33CDCC33CCC58233C5829BED9A8F
:100ABB00EC99E58298400CF582EE9BFEED9AFDECED
:100ACB0099FC0FD5F0D6E4CEFBE4CDFAE4CCF9A833
:100ADB008222B800C1B90059BA002DEC8BF084CF3B
:100AEB00CECDFCE5F0CBF97818EF2FFFEE33FEED12
:100AFB0033FDEC33FCEB33FB10D703994004EB993C
:100B0B00FB0FD8E5E4F9FA227818EF2FFFEE33FE4E
:100B1B00ED33FDEC33FCC933C910D7059BE99A4083
:100B2B0007EC9BFCE99AF90FD8E0E4C9FAE4CCFB9B
:100B3B002275F010EF2FFFEE33FEED33FDCC33CCEF
:100B4B00C833C810D7079BEC9AE899400AED9BFD78
:100B5B00EC9AFCE899F80FD5F0DAE4CDFBE4CCFA8B
:100B6B00E4C8F922EB9FF5F0EA9E42F0E99D42F0D2
:100B7B00E89C45F022E8600FECC313FCED13FDEE8F
:100B8B0013FEEF13FFD8F122ECF0A3EDF0A3EEF080
:100B9B00A3EFF022A8828583F0D083D082120BB60C
:100BAB00120BB6120BB6120BB6E473E493A3C58308
:100BBB00C5F0C583C8C582C8F0A3C583C5F0C5837E
:100BCB00C8C582C822EC8EF0A4CCC5F0CCCDF8EF12
:100BDB00A4CEC5F02DFDE43CFCE8A42EC8C5F03D29
:100BEB00FDE43CFCEFA4FFE5F028FEE43DFDE43C16
:100BFB00FC22E4F520C3E5209404E494005032AFCA
:100C0B0020120003E52025E02480F582E43400F572
:100C1B0083EEF0A3EFF0AF20121CDDE52025E024DE
:100C2B0088F582E43400F583EEF0A3EFF005208025
:100C3B00C4E4FF121A7B900090EEF0A3EFF0E4FFF8
:100C4B00121BB7900092120B937F01121A7B90002C
:100C5B0096EEF0A3EFF07F01121BB7900098120BEA
:100C6B0093E4F520C3E5209404E4940050507B00FA
:100C7B007A007922AF20121B7EE52075F00BA4249D
:100C8B009CF582E43400F583E522F0A3E523F0AE76
:100C9B0024AF25E4FCFDE52075F00BA4249EF58222
:100CAB00E43400F583120B93E52075F00BA424A616
:100CBB00F582E43400F583E526F0052080A690004C
:100CCB0096E0FFA3E09000C8CFF0A3EFF090009860
:100CDB00E0FCA3E0FDA3E0FEA3E0FF9000CA120B33
:100CEB00939000D27401F0E4F520C3E5209405E461
:100CFB0094004003020EF4C374049520F521E52003
:100D0B0075F00BA4249CF582E43400F583E0FEA37C
:100D1B00E0FFE4FCFDE52075F00BA4249EF582E4D6
:100D2B003400F583E0F8A3E0F9A3E0FAA3E0FB12AB
:100D3B000A52E47BE87A03F9F8120ADDE52075F034
:100D4B000BA424A2F582E43400F583120B93E52067
:100D5B0075F00BA4249EF582E43400F583E0FCA32C
:100D6B00E0FDA3E0FEA3E0FFE47B64FAF9F8120ACE
:100D7B00DDE47BFF7AFFF9F8C3120B6F5016E52108
:100D8B0075F007A424D3F582E43400F58374FFF0E7
:100D9B00A3F08037E52075F00BA4249EF582E43494
:100DAB0000F583E0FCA3E0FDA3E0FEA3E0FFE47B02
:100DBB0064FAF9F8120ADDE52175F007A424D3F5DE
:100DCB0082E43400F583EEF0A3EFF0E52075F00B31
:100DDB00A4249EF582E43400F583E0FCA3E0FDA39C
:100DEB00E0FEA3E0FFE47B64FAF9F8D3120B6F404B
:100DFB0025E52175F007A424D5F582E43400F583AD
:100E0B00E4F0A3F0E52175F007A424D7F582E434D0
:100E1B0000F583E48070E52075F00BA4249CF5822B
:100E2B00E43400F583E0FEA3E0FF7C007D6412094F
:100E3B00C5E52175F007A424D5F582E43400F583CC
:100E4B00EEF0A3EFF0E52075F00BA424A2F582E4FD
:100E5B003400F583E0FCA3E0FDA3E0FEA3E0FFE498
:100E6B007B64FAF9F8120ADDE47BFF7AFFF9F8C329
:100E7B00120B6F5016E52175F007A424D7F582E409
:100E8B003400F58374FFF0A3F08037E52075F00B89
:100E9B00A424A2F582E43400F583E0FCA3E0FDA3D7
:100EAB00E0FEA3E0FFE47B64FAF9F8120ADDE5212A
:100EBB0075F007A424D7F582E43400F583EEF0A394
:100ECB00EFF0E52075F00BA424A6F582E43400F5D1
:100EDB0083E0FFE52175F007A424D9F582E4340003
:100EEB00F583EFF00520020CF5121DA8EF600F90B3
:100EFB0000F6E07F0070027F019000F6EFF09000AB
:100F0B00F6E0FF121D99121D77C3EF9557FDEE9575
:100F1B0056FCC3ED9464EC9400400D8E568F577BBA
:100F2B00017A0079D312005E229000F67401F01260
:100F3B001735E4FBEBC39404E494005023EB25E05A
:100F4B002480F582E43400F583E4F0A3F0EB25E094
:100F5B002488F582E43400F583E4F0A3F00B80D40D
:100F6B00E4FBEBC39405748094805049EB75F00758
:100F7B00A424D3F582E43400F583E4F0A3F0EB75FD
:100F8B00F007A424D5F582E43400F583E4F0A3F054
:100F9B00EB75F007A424D7F582E43400F583E4F075
:100FAB00A3F0EB75F007A424D9F582E43400F583A4
:100FBB00E4F00B80ADE4FBEBC39405E49400504FDD
:100FCB00EB75F00BA4249CF582E43400F583E4F07C
:100FDB00A3F0EB75F00BA4249EF582E43400F583AB
:100FEB00120B9F00000000EB75F00BA424A2F582FE
:100FFB00E43400F583120B9F00000000EB75F00B3F
:10100B00A424A6F582E43400F583E4F00B80A8E475
:10101B00FBEBC39402E49400502AEB75F006A42476
:10102B0090F582E43400F583E4F0A3F0EB75F00661
:10103B00A42492F582E43400F583120B9F00000088
:10104B00000B80CD021C93C2ACE4FFEFC39402E40F
:10105B009400500F74462FF8E4F674492FF8E4F619
:10106B000F80E8E4F545F548F54490F006F07D0176
:10107B00FC7F06121B0AE4FD7F0112198E7D027F95
:10108B000612198E90F024E054FDF053A9FDA3E055
:10109B00548FF090F024E054FEF0A3E054F8440495
:1010AB00F090F024E054FBF090F02374FCF090F0FF
:1010BB002274BFF090F02174FEF090F020745FF07A
:1010CB0090F025E04480F090F024E054DFF0E05401
:1010DB00EFF043B90243A9027D017C007F01121B93
:1010EB000A90F0017405F0C28EC28FC2AD53897F96
:1010FB005389BFE58954CF4420F589758DE6758BEF
:10110B00E6E598543F4440F598C29DD29CE5975430
:10111B00DF4420F597438780C298C29943B8105398
:10112B00C0FD53C0BFD28ED2AC43A910D2AF22ACFC
:10113B0007ECD3940174809480400ED3E524940182
:10114B00748094804003752401ECD39401748094D3
:10115B0080401FA8047401088002C333D8FCF455E7
:10116B0095FFA804E524088002C333D8FC4FF595FE
:10117B008020EC25E0FFF87403088002C333D8FC11
:10118B00F45596FEA807E524088002C333D8FC4E1D
:10119B00F596A8047401088002C333D8FCF4559269
:1011AB00FFA804ED088002C333D8FC4FF592A804C6
:1011BB007401088002C333D8FCF45594FFAE03A826
:1011CB0004EE088002C333D8FC4FF594AF02A80499
:1011DB00EF088002C333D8FCFFA804740108800217
:1011EB00C333D8FCFEF455934FF593EE429122EFA7
:1011FB00B4090040030212A890120AF828287302BF
:10120B001225021230021240021250021260021218
:10121B00700212800212900212A090F00E741FF056
:10122B0053B2F0807890F00D741FF0E5B254F04497
:10123B0001F5B2806890F007741FF0E5B254F044EA
:10124B0002F5B2805890F006741FF0E5B254F044EA
:10125B0003F5B2804890F005741FF0E5B254F044EA
:10126B0004F5B2803890F004741FF0E5B254F044EA
:10127B0005F5B2802890F003741FF0E5B254F044EA
:10128B0006F5B2801890F002741FF0E5B254F044EA
:10129B0007F5B28008E5B254F04408F5B2EDC4543A
:1012AB00F0FFE5B2540F4FF5B2228D21A90774540C
:1012BB0029F8E6FF7021E52164A5600302136CE9B0
:1012CB0075F00BA4244BF582E43401F583E521F092
:1012DB00745429F8760122E975F00BA4244BF5829E
:1012EB00E43401F583E5822FF582E43583F583E55C
:1012FB0021F00FEFC3940BE494005007745429F8BA
:10130B00A60722E975F00BA42455F582E43401F508
:10131B0083E0645A7023E975F00BA4244CF582E446
:10132B003401F583E0D39403E49400500CAF011225
:10133B001424745429F8E4F622E52164A57F007087
:10134B00027F01745429F8A607745429F8E660113A
:10135B00E975F00BA4244BF582E43401F583E52108
:10136B00F022EF25E025E0FFC290C29100000000C3
:10137B0000000000D2920000000000000000D2919B
:10138B000000000000000000C291000000000000FF
:10139B000000C2920000000000000000D29100008B
:1013AB00000000000000C2910000000000000000DF
:1013BB00D2920000000000000000D291000000005B
:1013CB0000000000E4FEEEC3940674809480501776
:1013DB00C291EF3392920000000000000000D29106
:1013EB00EF25E0FF0E80DFE4FEEEC39404748094DF
:1013FB0080501FC291ED139292000000000000007C
:10140B0000D2910000000000000000EDC313FD0EA0
:10141B0080D7C291C292D29022EF75F00BA4244BCD
:10142B00F582E43401AD82F5228D23F583A3E0FB35
:10143B00EF25E0FAE5232402121D4EEA75F005A410
:10144B002437F582E43401F583EEF0A3EFF0E523C6
:10145B002404121D4EEA75F005A42439F582E434F8
:10146B0001F583EEF0A3EFF0EB54017F0060027FF8
:10147B0001EA75F005A4243BF582E43401F583EF12
:10148B00F0E5232406121D4EEA75F005A4243CF565
:10149B0082E43401F583EEF0A3EFF0E52324081288
:1014AB001D4EEA75F005A4243EF582E43401F58364
:1014BB00EEF0A3EFF0EB54027F0060027F01EA75C0
:1014CB00F005A42440F582E43401F583EFF022C249
:1014DB0090C2910000000000000000D292000000BA
:1014EB000000000000D2910000000000000000C2CC
:1014FB00910000000000000000C2920000000000FC
:10150B00000000D2910000000000000000C291001A
:10151B0000000000000000C292000000000000006C
:10152B0000D2910000000000000000E4FEEEC39426
:10153B0008748094805017C291EF33929200000090
:10154B000000000000D291EF25E0FF0E80DFC2917A
:10155B000000000000000000C2920000000000002C
:10156B000000D2910000000000000000C2910000BA
:10157B00000000000000D2902278FFE4F6D8FD9026
:10158B0000007F007E02E4F0A3DFFCDEFA75590059
:10159B007581590215DC021D63E493A3F8E493A350
:1015AB004003F68001F208DFF48029E493A3F8549A
:1015BB0007240CC8C333C4540F4420C8834004F41D
:1015CB0056800146F6DFE4800B0102040810204030
:1015DB0080901DA1E47E019360BCA3FF543F30E5D6
:1015EB0009541FFEE493A360010ECF54C025E060A5
:1015FB00A840B8E493A3FAE493A3F8E493A3C8C573
:10160B0082C8CAC583CAF0A3C8C582C8CAC583CA63
:10161B00DFE9DEE780BEAA05E5E2540FFEEBD39EC1
:10162B004007E5E254F04BF5E2EF14601B14602C1D
:10163B002402703F539E3F539EF7755300755248DB
:10164B007551E8755001802BE59E543F4440F59E43
:10165B00E4F55375527DF551F5508017439E08E51F
:10166B009E543F4480F59E75530075521275517A06
:10167B00755000E59E54F84AF59EE5E2540FFFEBDA
:10168B00C39F5007E5E254F04BF5E2AF53AE52ADBA
:10169B0051AC50AB02A803120B808F538E528D515D
:1016AB008C5022C0E0C083C082C0D075D01890F09F
:1016BB0024E030E56CE054DFF0AF45EF6401701EC1
:1016CB00E544C313F5443086034344800548AF48D3
:1016DB00C3EF9408E4940040487545028043AF453E
:1016EB00EF6402703C90F024E054FDF0754500531C
:1016FB00C0BFE5AA54CF4420F5AA308624E54704A1
:10170B00FFC39440E4940040027F00EF654A6011F0
:10171B00AE4774402EF582E43400F583E544F08F38
:10172B0047D0D0D082D083D0E032E4FFEFC3940215
:10173B00E49400503074542FF8E4F6FEEEC3940B8F
:10174B00E49400501DEF75F00BA4244BF582E434A8
:10175B0001F583E5822EF582E43583F583E4F00E03
:10176B0080DA0F80C7E4FFEFC39404E49400503792
:10177B00EF75F005A42437F582E43401F583E4F02A
:10178B00A3F0EF75F005A42439F582E43401F58359
:10179B00E4F0A3F0EF75F005A4243BF582E43401EB
:1017AB00F583E4F00F80C02290F00FE4F07D01FC94
:1017BB007F07121B447D027F071219DD53C87FE49C
:1017CB007B02FAF9F8AF53AE52AD51AC50120ADDB1
:1017DB00E47BE87A03F9F8120ADD8F238E228D2140
:1017EB008C20C3E49FFFE49EAD07FC53F4BFE5F4EC
:1017FB0054F84401F5F4AF04EFF5F5AF05EFF5F64A
:10180B0053F47F53B9FB43A90443F44043A910D2CB
:10181B00AFE4F54EF54FF54DF54CF54B22C0E0C05E
:10182B00F0C083C082C0D075D010E5C030E636530F
:10183B00C0BFAF45EF702E90F024E054FDF090F058
:10184B002174FEF090F020745FF090F024E054DFF0
:10185B00F0E054EFF0754501E04402F053AACF7568
:10186B004800754400E5C830E70653C87F12004EA8
:10187B00D0D0D082D083D0F0D0E03290F008E4F01A
:10188B00A3F0A3F0F5247B01FAFDFF12113AE4F566
:10189B00247B01FAFD7F0112113AE4F5247B01FA56
:1018AB00FD7F0212113AD290D291C2927F01121493
:1018BB00DA7F031214DA7F181214DA7FE31214DAC8
:1018CB00E4FCECC3944074809480500AAF04E4FDB4
:1018DB0012136D0C80EC22E55890004693FF7D01AE
:1018EB001211FA120026121C43E55825E02461F56B
:1018FB0082E43401F583EEF0A3EFF07C0C7DE4126F
:10190B000BD0E47BFF7A0FF9F8120ADDE55825E0DE
:10191B002469F582E43401F583EEF0A3EFF005586A
:10192B00C3E5589404E494004003E4F55822EFC354
:10193B009402E49400500E74492FF8E6FE74462F7F
:10194B00F8E6B506037F002274492FF8E6FEEF7523
:10195B00F040A42400F582E43400F583E5822EF5F3
:10196B0082E43583F583E0FE74492FF80674492F22
:10197B00F8E6C39440E49400400674492FF8E4F66B
:10198B00AF0622EF25E0FEF87403088002C333D8BC
:10199B00FCF455ABFCA806ED088002C333D8FC4C15
:1019AB00F5ABEF1313543FFE75F003A4FCEF540398
:1019BB0025E0FBF8EC088002C333D8FCF455AAFCF5
:1019CB00EE8DF0A4FEA803088002C333D8FC4CF5BF
:1019DB00AA22EF25E0FEF87403088002C333D8FC7B
:1019EB00F455ADFCA806ED088002C333D8FC4CF5CA
:1019FB00ADEF1313543FFE75F003A4FCEF54032516
:101A0B00E0FBF8EC088002C333D8FCF455ACFCEED9
:101A1B008DF0A4FEA803088002C333D8FC4CF5ACB0
:101A2B0022E4F558F520C3E5209404E494005032E9
:101A3B00E52025E02461F582E43401F583E4F0A38D
:101A4B00F0E52025E02469F582E43401F583E4F028
:101A5B00A3F0E52090004693FF7D011211FA0520BB
:101A6B0080C475E10412003E43AE807F01021D1B52
:101A7B00EFD39401E494004004E4FEFF22EF25E051
:101A8B002469F582E43401F583E0FEA3E0FF7C00DA
:101A9B007D0B120BD08F2A8E298D288C27E47FFF8C
:101AAB007EFFFDFCAB2AAA29A928A827D3120B6F0E
:101ABB0040057EFF7FFF22AE29AF2A22C0E0C08304
:101ACB00C082C0D075D008309827AF99C298E54630
:101ADB0004FEC39440E4940040027E00EE6549602E
:101AEB0010AD4674002DF582E43400F583EFF08ED3
:101AFB0046309902C299D0D0D082D083D0E032AB9D
:101B0B0007A8037401088002C333D8FCFAF4F95513
:101B1B00FDFFAE05A803EE088002C333D8FC4FF5DA
:101B2B00FDAF04A803EF088002C333D8FCFFE5FC2C
:101B3B00594FF5FCEAF452FA22AB07A803740108DB
:101B4B008002C333D8FCFAF4F95594FFAE05A80311
:101B5B00EE088002C333D8FC4FF594AF04A803EF13
:101B6B00088002C333D8FCFFE593594FF593EAF491
:101B7B005291228B278A288929EFC39404E494007D
:101B8B005008AC02AD01ED4C70037F0022EF75F0F5
:101B9B0005A42437F9740135F0FA7B01A829AC2888
:101BAB00AD277E007F051209477F0122EFD39401F9
:101BBB00E494004006E4FFFEFDFC22EF240225E046
:101BCB002469F582E43401F583E0FEA3E0FF7C0396
:101BDB007DE8120BD0E47B32FAF9F8120ADD228C85
:101BEB00318D32E4F533F534C3E5349532E5339575
:101BFB0031501AAF3412096DFD12136D740129F9AE
:101C0B00E43AFA0534E53470DF053380DB22C0E0BB
:101C1B00C0D075D000C00753F47F054FE54F70025D
:101C2B00054EAF4DEF600A154DAF4DEF7003754C80
:101C3B0001D007D0D0D0E032E5AE54407E00600436
:101C4B007F0180027F00EF4E60EE53AEBFAFB4EF6B
:101C5B0075F010A4FFAEF0E5B5540FFDEF4DFF226C
:101C6B00E4F520C3E5209402E49400501AAF20124F
:101C7B001CFCEF600EAF20121939AD07AF2012120A
:101C8B00B580EA052080DC22E4FFEFC3944074802A
:101C9B009480500F74F72FF582E43400F583E4F051
:101CAB000F80E77B017A0079F77D407C00021BEA0D
:101CBB007B037D01E4FF121621121D3912188612C7
:101CCB001A2C1217B3C2AF7F007E4B7D007C000233
:101CDB001052EFC39404E494004004E4FEFF22EF9F
:101CEB0025E02469F582E43401F583E0FEA3E0FFEF
:101CFB0022EFC39402E4940040037F002274492F27
:101D0B00F8E6FE74462FF8E66E7F0060027F012234
:101D1B00E58954FC4401F589D28CEF600E758CE09B
:101D2B00758AC0308DFDC28D1F80EFC28C2290F062
:101D3B000BE4F0F5247B01FAFD7F0312113A7F01CE
:101D4B00021D99FFE43522FEAD07AC068D828C8314
:101D5B00E0FEA3E0FDEDFF22121CBB120F34121CA0
:101D6B006B1218E2121D8A120BFD80F2A2AFE43344
:101D7B00C2AFAB4FAA4E24FF92AFAE02AF0322AF5E
:101D8B004CEF6009E4F54C209703754B0122EFC330
:101D9B006001D3929322045001E8480000AF4BE45A
:101DAB00F54B220B0007050C0D0F000F0D0B000759
:101DBB00050C0D0F000F0D0B0007050C0D0E060C7F
:101DCB000E060A0A0E0E0E0E060C0E060A0A0E0E52
:101DDB000E0E060C0E060A0E0E0804060D0A0D0852
:101DEB00070A0B0E0B080C0E0F0A0F070702010B4D
:101DFB00060B050E010D050D0703010F070F050C53
:101E0B000D0E0F101112131415161718191A1B1C7F
:0D1E1B001D1E1F0B0A08070605030201002B
:00000001FF
