:100000000207D4AB07A8037401088002C333D8FCED
:10001000FAF4F955FDFFAE05A803EE088002C333DC
:10002000D8FC4FF5FDAF04A803EF088002C333D816
:0D003000FCFFE5FC594FF5FCEAF452FA2202
:030043000205BFF4
:0E004B00020AE1AF0AEF7005750A14F50922EA
:10005B00020971E709F608DFFA8046E709F208DFC3
:10006B00FA803E88828C83E709F0A3DFFA8032E3C3
:10007B0009F608DFFA8078E309F208DFFA80708866
:10008B00828C83E309F0A3DFFA806489828A83E0A0
:10009B00A3F608DFFA805889828A83E0A3F208DF8F
:1000AB00FA804C80D280FA80C680D4806980F2803E
:1000BB0033801080A680EA809A80A880DA80E28064
:1000CB00CA803389828A83ECFAE493A3C8C582C8B9
:1000DB00CCC583CCF0A3C8C582C8CCC583CCDFE923
:1000EB00DEE7800D89828A83E493A3F608DFF9ECBF
:1000FB00FAA9F0EDFB2289828A83ECFAE0A3C8C54A
:10010B0082C8CCC583CCF0A3C8C582C8CCC583CC70
:10011B00DFEADEE880DB89828A83E493A3F208DFDF
:10012B00F980CC88F0EF60010E4E60C388F0ED24AF
:10013B0002B4040050B9F582EB2402B4040050AFB2
:10014B0023234582239000AE73BB010689828A83E9
:10015B00E0225002E722BBFE02E32289828A83E47B
:10016B009322BB010CE58229F582E5833AF583E006
:10017B00225006E92582F8E622BBFE06E92582F825
:10018B00E222E58229F582E5833AF583E49322EFB7
:10019B008DF0A4A8F0CF8CF0A428CE8DF0A42EFE69
:1001AB0022BC000BBE0029EF8DF084FFADF022E4E2
:1001BB00CCF875F008EF2FFFEE33FEEC33FCEE9D21
:1001CB00EC984005FCEE9DFE0FD5F0E9E4CEFD2248
:1001DB00EDF8F5F0EE8420D21CFEADF075F008EFD3
:1001EB002FFFED33FD4007985006D5F0F222C39850
:1001FB00FD0FD5F0EA22BB0110E58229F582E583DC
:10020B003AF583E0F5F0A3E0225009E92582F88660
:10021B00F008E622BBFE0AE92582F8E2F5F008E2D7
:10022B0022E5832AF583E993F5F0A3E99322E88F7E
:10023B00F0A4CC8BF0A42CFCE98EF0A42CFC8AF05F
:10024B00EDA42CFCEA8EF0A4CDA8F08BF0A42DCC61
:10025B003825F0FDE98FF0A42CCD35F0FCEB8EF0BA
:10026B00A4FEA9F0EB8FF0A4CFC5F02ECD39FEE4A0
:10027B003CFCEAA42DCE35F0FDE43CFC2275F008E5
:10028B00758200EF2FFFEE33FECD33CDCC33CCC5D3
:10029B008233C5829BED9AEC99E58298400CF582EE
:1002AB00EE9BFEED9AFDEC99FC0FD5F0D6E4CEFB60
:1002BB00E4CDFAE4CCF9A88222B800C1B90059BA4E
:1002CB00002DEC8BF084CFCECDFCE5F0CBF978187C
:1002DB00EF2FFFEE33FEED33FDEC33FCEB33FB1076
:1002EB00D703994004EB99FB0FD8E5E4F9FA227890
:1002FB0018EF2FFFEE33FEED33FDEC33FCC933C9A2
:10030B0010D7059BE99A4007EC9BFCE99AF90FD8AB
:10031B00E0E4C9FAE4CCFB2275F010EF2FFFEE33CB
:10032B00FEED33FDCC33CCC833C810D7079BEC9A0A
:10033B00E899400AED9BFDEC9AFCE899F80FD5F093
:10034B00DAE4CDFBE4CCFAE4C8F922EB9FF5F0EA52
:10035B009E42F0E99D42F0E89C45F022E8600FECEC
:10036B00C313FCED13FDEE13FEEF13FFD8F122ECDC
:10037B00F0A3EDF0A3EEF0A3EFF022A8828583F0BB
:10038B00D083D08212039D12039D12039D12039DF5
:10039B00E473E493A3C583C5F0C583C8C582C8F0D5
:1003AB00A3C583C5F0C583C8C582C822EC8EF0A453
:1003BB00CCC5F0CCCDF8EFA4CEC5F02DFDE43CFCC4
:1003CB00E8A42EC8C5F03DFDE43CFCEFA4FFE5F02E
:1003DB0028FEE43DFDE43CFC228D43A907740D2966
:1003EB00F8E6FF7021E54364A560030204F4E975A8
:1003FB00F00BA42474F582E43401F583E543F07427
:10040B000D29F8760122E975F00BA42474F582E42A
:10041B003401F583E5822FF582E43583F583E543DB
:10042B00F00FEFC3940BE494005007740D29F8A65A
:10043B000722E975F00BA4247EF582E43401F583E1
:10044B00E0645A7069E975F00BA42475F582E43405
:10045B0001F583E0D39403E494005052AF011206EC
:10046B007CE964017041FFEFC3940BE494005029C5
:10047B00E975F00BA42474F582E43401F583E5826D
:10048B002FF582E43583F583E0FE74692FF582E462
:10049B003401F583EEF00F80CE900166E004F0702E
:1004AB0006900165E004F0740D29F8E4F622E96486
:1004BB0001700E900168E004F07006900167E00493
:1004CB00F0E54364A57F0070027F01740D29F8A647
:1004DB0007740D29F8E66011E975F00BA42474F587
:1004EB0082E43401F583E543F022C2ACE4FFEFC3B1
:1004FB009402E49400500F742E2FF8E4F674312F0D
:10050B00F8E4F60F80E8E4F52DF530F52CF521F540
:10051B0022F523F524F525F526F527F528F529F5FC
:10052B002AF52B90F006F07D01FC7F06120003E408
:10053B00FD7F01120A2C7D027F06120A2C90F024FB
:10054B00E054FDF053A9FDA3E0548FF090F024E0AC
:10055B0054FEF0A3E054F84404F090F024E054FB74
:10056B00F090F02374FCF090F02274BFF090F02127
:10057B0074FEF090F020745FF090F025E04480F072
:10058B0090F024E054DFF0E054EFF043B90243A9BC
:10059B000290F001E4F07D01FC7F01120003C28E9A
:1005AB00C28FC2ADC2ACC29C53C0FD53C0BF43A9E6
:1005BB0010D2AF22C0E0C083C082C0D075D01890DB
:1005CB00F024E020E503020673E054DFF00524E598
:1005DB002470020523AF2DEF6401701EE52CC313AD
:1005EB00F52C308603432C800530AF30C3EF9408D5
:1005FB00E494004073752D02806EAF2DEF64027092
:10060B006790F024E054FDF0752D0053C0BFE5AAB0
:10061B0054CF4420F5AA308647E52F04FFC39440FE
:10062B00E4940040027F00EF6532602AAE2F74D154
:10063B002EF582E43400F583E52CF08F2F0526E5AB
:10064B002670020525C3E52F9532543FFFD3952B1A
:10065B0040168F2B8012052AE52A70020529800887
:10066B000528E52870020527D0D0D082D083D0E0B2
:10067B0032EF75F00BA42474F582E43401AD82F5EE
:10068B00448D45F583A3E0FBEF25E0FAE545240215
:10069B00120B74EA75F005A42451F582E43401F5CC
:1006AB0083EEF0A3EFF0E5452404120B74EA75F02A
:1006BB0005A42453F582E43401F583EEF0A3EFF0A7
:1006CB00EB54017F0060027F01EA75F005A424550D
:1006DB00F582E43401F583EFF0E5452406120B7443
:1006EB00EA75F005A42456F582E43401F583EEF0A7
:1006FB00A3EFF0E5452408120B74EA75F005A4246A
:10070B0058F582E43401F583EEF0A3EFF0EB5402DD
:10071B007F0060027F01EA75F005A4245AF582E49C
:10072B003401F583EFF022E4FEEEC39402E494006F
:10073B005030740D2EF8E4F6FFEFC3940BE49400E5
:10074B00501DEE75F00BA42474F582E43401F5838F
:10075B00E5822FF582E43583F583E4F00F80DA0E22
:10076B0080C7E4900165F0A3F0A3F0A3F0FFEFC303
:10077B00940BE49400500F74692FF582E43401F567
:10078B0083E4F00F80E8E4FEEEC39404E49400509D
:10079B0037EE75F005A42451F582E43401F583E4BA
:1007AB00F0A3F0EE75F005A42453F582E43401F5C3
:1007BB0083E4F0A3F0EE75F005A42455F582E43440
:1007CB0001F583E4F00E80C02278FFE4F6D8FD90AB
:1007DB0000007F007E02E4F0A3DFFCDEFA7551001F
:1007EB0075815102082C020B9DE493A3F8E493A3AB
:1007FB004003F68001F208DFF48029E493A3F85458
:10080B0007240CC8C333C4540F4420C8834004F4DA
:10081B0056800146F6DFE4800B01020408102040ED
:10082B0080900BABE47E019360BCA3FF543F30E59B
:10083B0009541FFEE493A360010ECF54C025E06062
:10084B00A840B8E493A3FAE493A3F8E493A3C8C530
:10085B0082C8CAC583CAF0A3C8C582C8CAC583CA21
:10086B00DFE9DEE780BEAA05E5E2540FFEEBD39E7F
:10087B004007E5E254F04BF5E2EF14601B14602CDB
:10088B002402703F539E3F539EF7754E00754D48A3
:10089B00754CE8754B01802BE59E543F4440F59E0B
:1008AB00E4F54E754D7DF54CF54B8017439E08E5F1
:1008BB009E543F4480F59E754E00754D12754C7AD3
:1008CB00754B00E59E54F84AF59EE5E2540FFFEB9D
:1008DB00C39F5007E5E254F04BF5E2AF4EAE4DAD82
:1008EB004CAC4BAB02A8031203678F4E8E4D8D4C55
:1008FB008C4B227B017A007977120AB47B017A0048
:10090B007982120B33E4F542C3E5429402E494007E
:10091B005053E5422402FF7B007A007943120A7B95
:10092B00E54275F00BA42432F582E43400F583E53F
:10093B0043F0A3E544F0AE45AF46E4FCFDE542755C
:10094B00F00BA42434F582E43400F58312037AE52A
:10095B004275F00BA4243CF582E43400F583E547A3
:10096B00F0054280A322C0E0C0F0C083C082C0D09B
:10097B0075D010E5C030E63E53C0BFAF2DEF7036DB
:10098B0090F024E054FDF090F02174FEF090F020F4
:10099B00745FF090F024E054DFF0E054EFF0752D2D
:1009AB0001E04402F053AACF753000752C000522EC
:1009BB00E52270020521E5C830E70653C87F120017
:1009CB004ED0D0D082D083D0F0D0E032EFC394029F
:1009DB00E49400500E74312FF8E6FE742E2FF8E6D7
:1009EB00B506037F002274312FF8E6FEEF75F04059
:1009FB00A42491F582E43400F583E5822EF582E49C
:100A0B003583F583E0FE74312FF80674312FF8E649
:100A1B00C39440E49400400674312FF8E4F6AF061B
:100A2B0022EF25E0FEF87403088002C333D8FCF4F0
:100A3B0055ABFCA806ED088002C333D8FC4CF5ABD4
:100A4B00EF1313543FFE75F003A4FCEF540325E0A2
:100A5B00FBF8EC088002C333D8FCF455AAFCEE8DEE
:100A6B00F0A4FEA803088002C333D8FC4CF5AA22DD
:100A7B008B488A49894AEFC39404E494005008AC2C
:100A8B0002AD01ED4C70037F0022EF75F005A4243D
:100A9B0051F9740135F0FA7B01A84AAC49AD487E97
:100AAB00007F0512012E7F01228B488A49894AAEAD
:100ABB0002AF01EF4E601EA2AF9200C2AFA801AC15
:100ACB0002AD037B007A0079217E007F0B12012E91
:100ADB00300002D2AF22C0E0C0D075D000C00753A7
:100AEB00F47F050CE50C7002050BAF0AEF600A15DD
:100AFB000AAF0AEF7003750901D007D0D0D0E032EE
:100B0B00E4F542C3E5429402E49400501AAF42125A
:100B1B000B55EF600EAF421209D7AD07AF42120370
:100B2B00E480EA054280DC228B488A49894AAE027E
:100B3B00AF01EF4E6013A801AC02AD037B017A014C
:100B4B0079657E007F0F12012E22EFC39402E4948D
:100B5B000040037F002274312FF8E6FE742E2FF82D
:100B6B00E66E7F0060027F0122FFE43544FEAD0795
:100B7B00AC068D828C83E0FEA3E0FDEDFF227B03B0
:100B8B007D01E4FF1208717F007E4B7D007C00022B
:100B9B0004F5120B89120732120B0B1208FE80F8A8
:070BAB00044B01E8480000C3
:00000001FF
