:1000000002170EEFC39404E494004004E4FEFF22C0
:10001000EF25E0248AF582E43401F583E0FEA3E0D5
:10002000FF2222021B54E5AE54107E0060047F01C3
:1000300080027F00EF64014E60EC43AE102253AEAD
:02004000DF22BD
:070043000212DD07060504AF
:0E004B00021CD3AF58EF7005755814F55722FC
:10005B000218AD8B278A288929E4F52AC3E52A944F
:10006B0005748094804003020213E52A75F007A4FF
:10007B00AB272529F9E52835F0FA900006120986F9
:10008B00605BAA28A92975F007E52AA4F58285F0FB
:10009B0083120A1AFBAAF07C007D64FFAE021209E0
:1000AB00C58F2B7C007D64AF03AE021209C57E00A9
:1000BB007F0ACFCDCFCECCCE1209C58F2CAB27AAC2
:1000CB002875F007E52AA4F58285F083120A1AFF3A
:1000DB00AEF07C007D0A1209C58D2D8007E4F52B4F
:1000EB00F52CF52DE52B7067E52C7063E52D705F16
:1000FB00901EC193FF4401FEE52A25E024E9F58219
:10010B00E4341EF583E49325E02411F582E43401F5
:10011B00F583EEF0E52A25E024E9F582E4341EF5BB
:10012B0083E49325E02412F582E43401F583EFF0A8
:10013B00E52A25E024EAF582E4341EF583E49325D1
:10014B00E02411F582E43401F583EEF00201F2E5CF
:10015B002C25E024C1F582E4341EF583E49344019D
:10016B00FFE52A25E024E9F582E4341EF583E493C8
:10017B0025E02411F582E43401F583EFF0E52C251D
:10018B00E024C2F582E4341EF583E493FFE52A25CF
:10019B00E024E9F582E4341EF583E49325E0241290
:1001AB00F582E43401F583EFF0E52D25E024C1F56C
:1001BB0082E4341EF583E4934401FFE52A25E02411
:1001CB00EAF582E4341EF583E49325E02411F582ED
:1001DB00E43401F583EFF0E52D25E024C2F582E44C
:1001EB00341EF583E493FFE52A25E024EAF582E447
:1001FB00341EF583E49325E02412F582E43401F5F3
:10020B0083EFF0052A020067E4F52AC3E52A94057B
:10021B007480948040030203CEE52A75F007A4ABEB
:10022B00272529F9E52835F0FA900002120A1AFB66
:10023B00AAF07C007D64FFAE021209C58F2B7C00F7
:10024B007D64AF03AE021209C57E007F0ACFCDCF0E
:10025B00CECCCE1209C58F2CE52A75F007A4AB279F
:10026B002529F9E52835F0FA900002120A1AFFAE9B
:10027B00F07C007D0A1209C58D2DE52B600302036E
:10028B0017E52C25E024D5F582E4341EF583E493A1
:10029B00FFE52A25E024F3F582E4341EF583E4938D
:1002AB0025E02411F582E43401F583EFF0E52C25EC
:1002BB00E024D6F582E4341EF583E4934408FFE58D
:1002CB002A25E024F3F582E4341EF583E49325E03C
:1002DB002412F582E43401F583EFF0E52D25E024BB
:1002EB00D5F582E4341EF583E493FFE52A25E0245B
:1002FB00F4F582E4341EF583E49325E02411F582B2
:10030B00E43401F583EFF0E52D02039DE52B25E0A9
:10031B0024D5F582E4341EF583E493FFE52A25E02A
:10032B0024F3F582E4341EF583E49325E02411F5E0
:10033B0082E43401F583EFF0E52B25E024D6F5823A
:10034B00E4341EF583E493FFE52A25E024F3F582DC
:10035B00E4341EF583E49325E02412F582E43401A2
:10036B00F583EFF0E52C25E024D5F582E4341EF57A
:10037B0083E493FFE52A25E024F4F582E4341EF5AB
:10038B0083E49325E02411F582E43401F583EFF047
:10039B00E52C25E024D6F582E4341EF583E4934462
:1003AB0008FFE52A25E024F4F582E4341EF583E406
:1003BB009325E02412F582E43401F583EFF0052A4E
:1003CB00020216E4F52AC3E52A9405748094804052
:1003DB0003020724E52A75F007A4AB272529F9E5C5
:1003EB002835F0FA900004120A1AF53085F02FE444
:1003FB00F52E9000061209866053C3E53094E8E5AC
:10040B002F94034012752E01AE2FAF307C007D0A66
:10041B001209C58E2F8F30AE2FAF307C007D64124A
:10042B0009C58F2BAE2FAF307C007D641209C57EC2
:10043B00007F0ACFCDCFCECCCE1209C58F2CAE2FDD
:10044B00AF307C007D0A1209C58D2D8009E4F52B98
:10045B00F52CF52DF52E7447252AF8E4F6744C256A
:10046B002AF876017451252AF8E4F6AF2BFEEF60DB
:10047B0003020502E52C707FE52D707BE52E70776E
:10048B00901ED593FDE52A25E024FDF582E4341E6C
:10049B00F583E49325E02411F582E43401F583ED33
:1004AB00F0E52A25E024FDF582E4341EF583E49380
:1004BB0025E02412F582E43401F583EDF0E52A25DD
:1004CB00E024FEF582E4341EF583E49325E0241149
:1004DB00F582E43401F583EDF0E52A25E024FEF501
:1004EB0082E4341EF583E49325E02412F582E43490
:1004FB0001F583ED0205BFEF4E60030205CAE52E41
:10050B0060030205CAE52C25E024D5F582E4341EF0
:10051B00F583E493FFE52A25E024FDF582E4341E00
:10052B00F583E49325E02411F582E43401F583EFA0
:10053B00F0E52C25E024D6F582E4341EF583E49314
:10054B00FFE52A25E024FDF582E4341EF583E493D0
:10055B0025E02412F582E43401F583EFF0E52D2537
:10056B00E024D5F582E4341EF583E493FFE52A25D8
:10057B00E024FEF582E4341EF583E49325E0241198
:10058B00F582E43401F583EFF0E52D25E024D6F573
:10059B0082E4341EF583E493FFE52A25E024FEF57F
:1005AB0082E4341EF583E49325E02412F582E434CF
:1005BB0001F583EFF07451252AF8760102071FD35A
:1005CB00E52B940074809480500302071FE52E6086
:1005DB0003020668E52B25E024D5F582E4341EF5ED
:1005EB0083E493FFE52A25E024FDF582E4341EF530
:1005FB0083E49325E02411F582E43401F583EFF0D5
:10060B00E52B25E024D6F582E4341EF583E493FF35
:10061B00E52A25E024FDF582E4341EF583E49325D9
:10062B00E02412F582E43401F583EFF0E52C25E0AC
:10063B0024D5F582E4341EF583E493FFE52A25E007
:10064B0024FEF582E4341EF583E49325E02411F5B2
:10065B0082E43401F583EFF0E52C0206F5744725AF
:10066B002AF87601E52C25E024D5F582E4341EF535
:10067B0083E493FFE52A25E024FDF582E4341EF59F
:10068B0083E49325E02411F582E43401F583EFF044
:10069B00E52C25E024D6F582E4341EF583E493FFA4
:1006AB00E52A25E024FDF582E4341EF583E4932549
:1006BB00E02412F582E43401F583EFF0E52D25E01B
:1006CB0024D5F582E4341EF583E493FFE52A25E077
:1006DB0024FEF582E4341EF583E49325E02411F522
:1006EB0082E43401F583EFF0E52D25E024D6F58285
:1006FB00E4341EF583E493FFE52A25E024FEF5821E
:10070B00E4341EF583E49325E02412F582E43401EE
:10071B00F583EFF0052A0203D1E4900123F0A3F057
:10072B00E54C64017004E04408F0E548640170078F
:10073B00900124E04404F0E4900119F0A3F0E54E9D
:10074B0064017007900119E04404F0E54A640170FC
:10075B0007900119E04402F0E54B6401700790012A
:10076B0019E04401F0E54964017013901F019325D2
:10077B00E02412F582E43401F583E04408F0E54708
:10078B0064017013901EFD9325E02412F582E4346E
:10079B0001F583E04408F0E55164017013901EFEEF
:1007AB009325E02412F582E43401F583E04408F04C
:1007BB00E55264017013901EFF9325E02412F5821D
:1007CB00E43401F583E04408F0E5536401701390C1
:1007DB001F029325E02412F582E43401F583E044F3
:1007EB0008F0E55464017013901F039325E0241265
:1007FB00F582E43401F583E04408F0E555640170BB
:10080B0013901F059325E02412F582E43401F58340
:10081B00E04408F0E54D64017013901F009325E050
:10082B002412F582E43401F583E04408F0E54F64CB
:10083B00017013901F049325E02412F582E4340118
:10084B00F583E04408F0E55064017013901F0693A4
:10085B0025E02412F582E43401F583E04408F07BB3
:10086B00017A0179117D407C00021C77E709F608BB
:10087B00DFFA8046E709F208DFFA803E88828C8334
:10088B00E709F0A3DFFA8032E309F608DFFA807894
:10089B00E309F208DFFA807088828C83E309F0A306
:1008AB00DFFA806489828A83E0A3F608DFFA805836
:1008BB0089828A83E0A3F208DFFA804C80D280FA27
:1008CB0080C680D4806980F28033801080A680EA55
:1008DB00809A80A880DA80E280CA803389828A83FA
:1008EB00ECFAE493A3C8C582C8CCC583CCF0A3C8EB
:1008FB00C582C8CCC583CCDFE9DEE7800D89828A4F
:10090B0083E493A3F608DFF9ECFAA9F0EDFB228957
:10091B00828A83ECFAE0A3C8C582C8CCC583CCF02D
:10092B00A3C8C582C8CCC583CCDFEADEE880DB89EF
:10093B00828A83E493A3F208DFF980CC88F0EF601E
:10094B00010E4E60C388F0ED2402B4040050B9F5DB
:10095B0082EB2402B4040050AF232345822390087A
:10096B00C773BB010689828A83E0225002E722BB50
:10097B00FE02E32289828A83E49322BB010CE58287
:10098B0029F582E5833AF583E0225006E92582F8C2
:10099B00E622BBFE06E92582F8E222E58229F582F2
:1009AB00E5833AF583E49322EF8DF0A4A8F0CF8C86
:1009BB00F0A428CE8DF0A42EFE22BC000BBE002985
:1009CB00EF8DF084FFADF022E4CCF875F008EF2F3B
:1009DB00FFEE33FEEC33FCEE9DEC984005FCEE9DF8
:1009EB00FE0FD5F0E9E4CEFD22EDF8F5F0EE842014
:1009FB00D21CFEADF075F008EF2FFFED33FD400775
:100A0B00985006D5F0F222C398FD0FD5F0EA22BB21
:100A1B000110E58229F582E5833AF583E0F5F0A331
:100A2B00E0225009E92582F886F008E622BBFE0A8F
:100A3B00E92582F8E2F5F008E222E5832AF583E95D
:100A4B0093F5F0A3E99322E88FF0A4CC8BF0A42CC0
:100A5B00FCE98EF0A42CFC8AF0EDA42CFCEA8EF0C1
:100A6B00A4CDA8F08BF0A42DCC3825F0FDE98FF0A8
:100A7B00A42CCD35F0FCEB8EF0A4FEA9F0EB8FF09F
:100A8B00A4CFC5F02ECD39FEE43CFCEAA42DCE3527
:100A9B00F0FDE43CFC2275F008758200EF2FFFEEB1
:100AAB0033FECD33CDCC33CCC58233C5829BED9A8F
:100ABB00EC99E58298400CF582EE9BFEED9AFDECED
:100ACB0099FC0FD5F0D6E4CEFBE4CDFAE4CCF9A833
:100ADB008222B800C1B90059BA002DEC8BF084CF3B
:100AEB00CECDFCE5F0CBF97818EF2FFFEE33FEED12
:100AFB0033FDEC33FCEB33FB10D703994004EB993C
:100B0B00FB0FD8E5E4F9FA227818EF2FFFEE33FE4E
:100B1B00ED33FDEC33FCC933C910D7059BE99A4083
:100B2B0007EC9BFCE99AF90FD8E0E4C9FAE4CCFB9B
:100B3B002275F010EF2FFFEE33FEED33FDCC33CCEF
:100B4B00C833C810D7079BEC9AE899400AED9BFD78
:100B5B00EC9AFCE899F80FD5F0DAE4CDFBE4CCFA8B
:100B6B00E4C8F922EB9FF5F0EA9E42F0E99D42F0D2
:100B7B00E89C45F022E8600FECC313FCED13FDEE8F
:100B8B0013FEEF13FFD8F122ECF0A3EDF0A3EEF080
:100B9B00A3EFF022A8828583F0D083D082120BB60C
:100BAB00120BB6120BB6120BB6E473E493A3C58308
:100BBB00C5F0C583C8C582C8F0A3C583C5F0C5837E
:100BCB00C8C582C822EC8EF0A4CCC5F0CCCDF8EF12
:100BDB00A4CEC5F02DFDE43CFCE8A42EC8C5F03D29
:100BEB00FDE43CFCEFA4FFE5F028FEE43DFDE43C16
:100BFB00FC22E4F521C3E5219404E494005032AFC8
:100C0B0021120003E52125E02400F582E43400F5F0
:100C1B0083EEF0A3EFF0AF21121DB9E52125E024FF
:100C2B0008F582E43400F583EEF0A3EFF0052180A4
:100C3B00C4E4FF121B08900010EEF0A3EFF0E4FFEA
:100C4B00121C44900012120B937F01121B08900090
:100C5B0016EEF0A3EFF07F01121C44900018120B5C
:100C6B0093E4F521C3E5219404E4940050507B00F8
:100C7B007A007922AF21121C0BE52175F00BA4240D
:100C8B001CF582E43400F583E522F0A3E523F0AEF6
:100C9B0024AF25E4FCFDE52175F00BA4241EF582A1
:100CAB00E43400F583120B93E52175F00BA4242695
:100CBB00F582E43400F583E526F0052180A690004B
:100CCB0016E0FFA3E0900048CFF0A3EFF0900018E0
:100CDB00E0FCA3E0FDA3E0FEA3E0FF90004A120BB3
:100CEB00939000527401F0E4F521C3E5219405E4DF
:100CFB0094004003020E9EE52175F00BA4241CF515
:100D0B0082E43400F583E0FEA3E0FFE4FCFDE52183
:100D1B0075F00BA4241EF582E43400F583E0F8A3F0
:100D2B00E0F9A3E0FAA3E0FB120A52E47BE87A03B2
:100D3B00F9F8120ADDE52175F00BA42422F582E403
:100D4B003400F583120B93E52175F00BA4241EF5EB
:100D5B0082E43400F583E0FCA3E0FDA3E0FEA3E016
:100D6B00FFE47B64FAF9F8120ADDE47BFF7AFFF902
:100D7B00F8C3120B6FE521501475F007A42453F53B
:100D8B0082E43400F58374FFF0A3F0803575F00B2B
:100D9B00A4241EF582E43400F583E0FCA3E0FDA35C
:100DAB00E0FEA3E0FFE47B64FAF9F8120ADDE5212B
:100DBB0075F007A42453F582E43400F583EEF0A319
:100DCB00EFF0E52175F00BA4241CF582E43400F55B
:100DDB0083E0FEA3E0FF7C007D641209C5E521756D
:100DEB00F007A42455F582E43400F583EEF0A3EF6D
:100DFB00F0E52175F00BA42422F582E43400F58391
:100E0B00E0FCA3E0FDA3E0FEA3E0FFE47B64FAF9C2
:100E1B00F8120ADDE47BFF7AFFF9F8C3120B6FE5DA
:100E2B0021501475F007A42457F582E43400F583A0
:100E3B0074FFF0A3F0803575F00BA42422F582E447
:100E4B003400F583E0FCA3E0FDA3E0FEA3E0FFE4A8
:100E5B007B64FAF9F8120ADDE52175F007A4245733
:100E6B00F582E43400F583EEF0A3EFF0E52175F0A5
:100E7B000BA42426F582E43400F583E0FFE521750D
:100E8B00F007A42459F582E43400F583EFF0052133
:100E9B00020CF5121E87EF600F900076E07F00705A
:100EAB00027F01900076EFF0900076E0FF121E7843
:100EBB00121E56C3EF9562FDEE9561FCC3ED946473
:100ECB00EC9400401F8E618F627B017A0079771260
:100EDB001CA67B017A007982121D977B017A00791F
:100EEB005312005E229000767401F012166CE4FB34
:100EFB00EBC39404E494005023EB25E02400F5822B
:100F0B00E43400F583E4F0A3F0EB25E02408F5824C
:100F1B00E43400F583E4F0A3F00B80D4E4FBEBC3E3
:100F2B009405748094805049EB75F007A42453F515
:100F3B0082E43400F583E4F0A3F0EB75F007A4240E
:100F4B0055F582E43400F583E4F0A3F0EB75F0077C
:100F5B00A42457F582E43400F583E4F0A3F0EB7599
:100F6B00F007A42459F582E43400F583E4F00B80F8
:100F7B00ADE4FBEBC39405E49400504FEB75F00B21
:100F8B00A4241CF582E43400F583E4F0A3F0EB75A4
:100F9B00F00BA4241EF582E43400F583120B9F00A2
:100FAB00000000EB75F00BA42422F582E43400F56D
:100FBB0083120B9F00000000EB75F00BA42426F5A9
:100FCB0082E43400F583E4F00B80A8E4FBEBC394DC
:100FDB0002E49400502AEB75F006A42410F582E489
:100FEB003400F583E4F0A3F0EB75F006A42412F5BE
:100FFB0082E43400F583120B9F000000000B80CDC0
:10100B00021D4D8D22A907745F29F8E6FF7021E5BB
:10101B002264A5600302111EE975F00BA42474F57C
:10102B0082E43401F583E522F0745F29F87601221E
:10103B00E975F00BA42474F582E43401F583E582A1
:10104B002FF582E43583F583E522F00FEFC3940B84
:10105B00E494005007745F29F8A60722E975F00B9A
:10106B00A4247EF582E43401F583E0645A7069E9C7
:10107B0075F00BA42475F582E43401F583E0D39469
:10108B0003E494005052AF0112150CE96401704156
:10109B00FFEFC3940BE494005029E975F00BA424E3
:1010AB0074F582E43401F583E5822FF582E4358310
:1010BB00F583E0FE74692FF582E43401F583EEF0DD
:1010CB000F80CE900166E004F07006900165E0049D
:1010DB00F0745F29F8E4F622E96401700E90016860
:1010EB00E004F07006900167E004F0E52264A57F50
:1010FB000070027F01745F29F8A607745F29F8E678
:10110B006011E975F00BA42474F582E43401F583C6
:10111B00E522F022C2ACE4FFEFC39402E49400504A
:10112B000F74422FF8E4F674452FF8E4F60F80E8BD
:10113B00E4F541F544F540F535F536F537F538F579
:10114B0039F53AF53BF53CF53DF53EF53F90F006AC
:10115B00F07D01FC7F06121B97E4FD7F01121A1B29
:10116B007D027F06121A1B90F024E054FDF053A968
:10117B00FDA3E0548FF090F024E054FEF0A3E05474
:10118B00F84404F090F024E054FBF090F02374FC4E
:10119B00F090F02274BFF090F02174FEF090F020EC
:1011AB00745FF090F025E04480F090F024E054DF81
:1011BB00F0E054EFF043B90243A9027D017C007FBC
:1011CB0001121B9790F0017405F0C28EC28FC2AD55
:1011DB0053897F5389BFE58954CF4420F589758D99
:1011EB00E6758BE6E598543F4440F598C29DD29C3A
:1011FB00E59754DF4420F597438780C298C2994303
:10120B00B81053C0FD53C0BFD28ED2AC43A910D27D
:10121B00AF22AC07ECD3940174809480400ED3E5DD
:10122B00259401748094804003752501ECD39401BF
:10123B0074809480401FA8047401088002C333D8C3
:10124B00FCF45595FFA804E525088002C333D8FCB0
:10125B004FF5958020EC25E0FFF87403088002C35E
:10126B0033D8FCF45596FEA807E525088002C33356
:10127B00D8FC4EF596A8047401088002C333D8FC41
:10128B00F45592FFA804ED088002C333D8FC4FF548
:10129B0092A8047401088002C333D8FCF45594FF60
:1012AB00AE03A804EE088002C333D8FC4FF594AF0D
:1012BB0002A804EF088002C333D8FCFFA804740112
:1012CB00088002C333D8FCFEF455934FF593EE42DE
:1012DB009122C0E0C083C082C0D075D01890F0249A
:1012EB00E020E503021391E054DFF00538E5387098
:1012FB00020537AF41EF6401701EE540C313F540A3
:10130B003086034340800544AF44C3EF9408E49414
:10131B00004073754102806EAF41EF6402706790BD
:10132B00F024E054FDF075410053C0BFE5AA54CF43
:10133B004420F5AA308647E54304FFC39440E49468
:10134B000040027F00EF6546602AAE4374D12EF554
:10135B0082E43400F583E540F08F43053AE53A70BB
:10136B00020539C3E5439546543FFFD3953F4016DD
:10137B008F3F8012053EE53E7002053D8008053C1F
:10138B00E53C7002053BD0D0D082D083D0E032EF69
:10139B00B4090040030214489013AAF828287302DA
:1013AB0013C50213D00213E00213F002140002144F
:1013BB001002142002143002144090F00E741FF02F
:1013CB0053B2F0807890F00D741FF0E5B254F044F6
:1013DB0001F5B2806890F007741FF0E5B254F04449
:1013EB0002F5B2805890F006741FF0E5B254F04449
:1013FB0003F5B2804890F005741FF0E5B254F04449
:10140B0004F5B2803890F004741FF0E5B254F04448
:10141B0005F5B2802890F003741FF0E5B254F04448
:10142B0006F5B2801890F002741FF0E5B254F04448
:10143B0007F5B28008E5B254F04408F5B2EDC45498
:10144B00F0FFE5B2540F4FF5B222EF25E025E0FF98
:10145B00C290C2910000000000000000D292000078
:10146B00000000000000D29100000000000000000E
:10147B00C2910000000000000000C29200000000BA
:10148B0000000000D2910000000000000000C2919B
:10149B000000000000000000D292000000000000DD
:1014AB000000D2910000000000000000E4FEEEC33B
:1014BB009406748094805017C291EF33929200007F
:1014CB00000000000000D291EF25E0FF0E80DFE46A
:1014DB00FEEEC3940474809480501FC291ED13925E
:1014EB00920000000000000000D2910000000000FC
:1014FB00000000EDC313FD0E80D7C291C292D290B3
:10150B0022EF75F00BA42474F582E43401AD82F55F
:10151B00238D24F583A3E0FBEF25E0FAE5242402D9
:10152B00121E41EA75F005A42451F582E43401F54D
:10153B0083EEF0A3EFF0E5242404121E41EA75F0CC
:10154B0005A42453F582E43401F583EEF0A3EFF008
:10155B00EB54017F0060027F01EA75F005A424556E
:10156B00F582E43401F583EFF0E5242406121E41E5
:10157B00EA75F005A42456F582E43401F583EEF008
:10158B00A3EFF0E5242408121E41EA75F005A4240C
:10159B0058F582E43401F583EEF0A3EFF0EB54023F
:1015AB007F0060027F01EA75F005A4245AF582E4FE
:1015BB003401F583EFF022C290C2910000000000CD
:1015CB00000000D2920000000000000000D2910049
:1015DB0000000000000000C29100000000000000AD
:1015EB0000C2920000000000000000D29100000039
:1015FB000000000000C2910000000000000000C2CB
:10160B00920000000000000000D2910000000000DA
:10161B00000000E4FEEEC39408748094805017C25F
:10162B0091EF3392920000000000000000D291EF86
:10163B0025E0FF0E80DFC2910000000000000000DB
:10164B00C2920000000000000000D29100000000D8
:10165B0000000000C2910000000000000000D290CA
:10166B0022E4FEEEC39402E494005030745F2EF833
:10167B00E4F6FFEFC3940BE49400501DEE75F00BF2
:10168B00A42474F582E43401F583E5822FF582E41A
:10169B003583F583E4F00F80DA0E80C7E4900165A3
:1016AB00F0A3F0A3F0A3F0FFEFC3940BE49400506E
:1016BB000F74692FF582E43401F583E4F00F80E8B1
:1016CB00E4FEEEC39404E494005037EE75F005A4E9
:1016DB002451F582E43401F583E4F0A3F0EE75F0C8
:1016EB0005A42453F582E43401F583E4F0A3F0EE72
:1016FB0075F005A42455F582E43401F583E4F00E6E
:10170B0080C02278FFE4F6D8FD9000007F007E02B7
:10171B00E4F0A3DFFCDEFA756400758164021766E2
:10172B00021E15E493A3F8E493A34003F68001F2A1
:10173B0008DFF48029E493A3F85407240CC8C333BF
:10174B00C4540F4420C8834004F456800146F6DF8E
:10175B00E4800B0102040810204080901E80E47E80
:10176B00019360BCA3FF543F30E509541FFEE49383
:10177B00A360010ECF54C025E060A840B8E493A34A
:10178B00FAE493A3F8E493A3C8C582C8CAC583CA75
:10179B00F0A3C8C582C8CAC583CADFE9DEE780BE2D
:1017AB00AA05E5E2540FFEEBD39E4007E5E254F0A9
:1017BB004BF5E2EF14601B14602C2402703F539E18
:1017CB003F539EF7755E00755D48755CE8755B0170
:1017DB00802BE59E543F4440F59EE4F55E755D7DA0
:1017EB00F55CF55B8017439E08E59E543F4480F5FE
:1017FB009E755E00755D12755C7A755B00E59E5497
:10180B00F84AF59EE5E2540FFFEBC39F5007E5E264
:10181B0054F04BF5E2AF5EAE5DAD5CAC5BAB02A8DA
:10182B0003120B808F5E8E5D8D5C8C5B2290F00FB4
:10183B00E4F07D01FC7F07121BD17D027F07121A9A
:10184B006A53C87FE47B02FAF9F8AF5EAE5DAD5C1C
:10185B00AC5B120ADDE47BE87A03F9F8120ADD8F40
:10186B00248E238D228C21C3E49FFFE49EAD07FCC5
:10187B0053F4BFE5F454F84401F5F4AF04EFF5F578
:10188B00AF05EFF5F653F47F53B9FB43A90443F4CB
:10189B004043A910D2AFE4F559F55AF558F557F571
:1018AB005622C0E0C0F0C083C082C0D075D010E516
:1018BB00C030E63E53C0BFAF41EF703690F024E02E
:1018CB0054FDF090F02174FEF090F020745FF090D6
:1018DB00F024E054DFF0E054EFF0754101E04402F6
:1018EB00F053AACF7544007540000536E5367002FB
:1018FB000535E5C830E70653C87F12004ED0D0D06F
:10190B0082D083D0F0D0E03290F008E4F0A3F0A3C3
:10191B00F0F5257B01FAFDFF12121DE4F5257B0185
:10192B00FAFD7F0112121DE4F5257B01FAFD7F0202
:10193B0012121DD290D291C2927F011215C27F0357
:10194B001215C27F181215C27FE31215C2E4FCEC0C
:10195B00C3944074809480500AAF04E4FD12145574
:10196B000C80EC22E56390004693FF7D0112139AE5
:10197B00120026121CFDE56325E0248AF582E4346F
:10198B0001F583EEF0A3EFF07C0C7DE4120BD0E4B9
:10199B007BFF7A0FF9F8120ADDE56325E02492F557
:1019AB0082E43401F583EEF0A3EFF00563C3E56346
:1019BB009404E494004003E4F56322EFC39402E43F
:1019CB009400500E74452FF8E6FE74422FF8E6B5DE
:1019DB0006037F002274452FF8E6FEEF75F040A456
:1019EB002491F582E43400F583E5822EF582E4350B
:1019FB0083F583E0FE74452FF80674452FF8E6C394
:101A0B009440E49400400674452FF8E4F6AF0622A8
:101A1B00EF25E0FEF87403088002C333D8FCF455BD
:101A2B00ABFCA806ED088002C333D8FC4CF5ABEF3A
:101A3B001313543FFE75F003A4FCEF540325E0FB96
:101A4B00F8EC088002C333D8FCF455AAFCEE8DF0F9
:101A5B00A4FEA803088002C333D8FC4CF5AA22EFDE
:101A6B0025E0FEF87403088002C333D8FCF455ADAF
:101A7B00FCA806ED088002C333D8FC4CF5ADEF1380
:101A8B0013543FFE75F003A4FCEF540325E0FBF861
:101A9B00EC088002C333D8FCF455ACFCEE8DF0A4FB
:101AAB00FEA803088002C333D8FC4CF5AC22E4F546
:101ABB0063F521C3E5219404E494005032E521251C
:101ACB00E0248AF582E43401F583E4F0A3F0E52108
:101ADB0025E02492F582E43401F583E4F0A3F0E5EC
:101AEB002190004693FF7D0112139A052180C47546
:101AFB00E10412003E43AE807F01021DF7EFD39449
:101B0B0001E494004004E4FEFF22EF25E02492F56B
:101B1B0082E43401F583E0FEA3E0FF7C007D0B1231
:101B2B000BD08F2A8E298D288C27E47FFF7EFFFD1B
:101B3B00FCAB2AAA29A928A827D3120B6F40057E34
:101B4B00FF7FFF22AE29AF2A22C0E0C083C082C034
:101B5B00D075D008309827AF99C298E54204FEC3E0
:101B6B009440E4940040027E00EE65456010AD4267
:101B7B0074912DF582E43400F583EFF08E423099A9
:101B8B0002C299D0D0D082D083D0E032AB07A80369
:101B9B007401088002C333D8FCFAF4F955FDFFAE8B
:101BAB0005A803EE088002C333D8FC4FF5FDAF0444
:101BBB00A803EF088002C333D8FCFFE5FC594FF5AF
:101BCB00FCEAF452FA22AB07A8037401088002C3A3
:101BDB0033D8FCFAF4F95594FFAE05A803EE088050
:101BEB0002C333D8FC4FF594AF04A803EF0880026F
:101BFB00C333D8FCFFE593594FF593EAF452912286
:101C0B008B278A288929EFC39404E494005008ACED
:101C1B0002AD01ED4C70037F0022EF75F005A4249B
:101C2B0051F9740135F0FA7B01A829AC28AD277E58
:101C3B00007F051209477F0122EFD39401E4940042
:101C4B004006E4FFFEFDFC22EF240225E02492F582
:101C5B0082E43401F583E0FEA3E0FF7C037DE81210
:101C6B000BD0E47B32FAF9F8120ADD228C318D327B
:101C7B00E4F533F534C3E5349532E5339531501A39
:101C8B00AF3412096DFD121455740129F9E43AFAB7
:101C9B000534E53470DF053380DB228B278A2889F6
:101CAB0029AE02AF01EF4E601EA2AF9200C2AFA8E9
:101CBB0001AC02AD037B007A0079357E007F0B12FD
:101CCB000947300002D2AF22C0E0C0D075D000C0AF
:101CDB000753F47F055AE55A70020559AF58EF6068
:101CEB000A1558AF58EF7003755701D007D0D0D0F5
:101CFB00E032E5AE54407E0060047F0180027F003D
:101D0B00EF4E60EE53AEBFAFB4EF75F010A4FFAE65
:101D1B00F0E5B5540FFDEF4DFF22E4F521C3E521AE
:101D2B009402E49400501AAF21121DD8EF600EAF4D
:101D3B00211219C6AD07AF2112100E80EA052180C2
:101D4B00DC22E4FFEFC3944074809480500F741135
:101D5B002FF582E43401F583E4F00F80E77B017A01
:101D6B000179117D407C00021C777B037D01E4FF30
:101D7B001217AB121E2C121913121AB9121838C2E1
:101D8B00AF7F007E4B7D007C0002111F8B278A28C2
:101D9B008929AE02AF01EF4E6013A801AC02AD036F
:101DAB007B017A0179657E007F0F12094722EFC311
:101DBB009404E494004004E4FEFF22EF25E0249217
:101DCB00F582E43401F583E0FEA3E0FF22EFC39438
:101DDB0002E4940040037F002274452FF8E6FE7462
:101DEB00422FF8E66E7F0060027F0122E58954FCEA
:101DFB004401F589D28CEF600E758CE0758AC0308A
:101E0B008DFDC28D1F80EFC28C22121D75120EF03C
:101E1B00121D2512196F120022121E69120BFD8062
:101E2B00EF90F00BE4F0F5257B01FAFD7F03121226
:101E3B001D7F01021E78FFE43523FEAD07AC068D36
:101E4B00828C83E0FEA3E0FDEDFF22A2AFE433C260
:101E5B00AFAB5AAA5924FF92AFAE02AF0322AF57D2
:101E6B00EF6009E4F55720970375560122EFC36025
:101E7B0001D3929322045B01E8480000AF56E4F5CE
:101E8B0056220B0007050C0D0F000F0D0B0007055D
:101E9B000C0D0F000F0D0B0007050C0D0E060C0E95
:101EAB00060A0A0E0E0E0E060C0E060A0A0E0E0E71
:101EBB000E060C0E060A0E0E0804060D0A0D080778
:101ECB000A0B0E0B080C0E0F0A0F070702010B066D
:101EDB000B050E010D050D0703010F070F050C0D6B
:101EEB000E0F101112131415161718191A1B1C1D8F
:0C1EFB001E1F0B0A080706050302010069
:00000001FF
