:1000000002052BBB010689828A83E0225002E72287
:10001000BBFE02E32289828A83E49322BB010CE5C2
:100020008229F582E5833AF583E0225006E92582AC
:10003000F8E622BBFE06E92582F8E222E58229F5F0
:1000400082E5833AF583E49322EF8DF0A4A8F0CF04
:100050008CF0A428CE8DF0A42EFE22BC000BBE0096
:1000600029EF8DF084FFADF022E4CCF875F008EFB5
:100070002FFFEE33FEEC33FCEE9DEC984005FCEEDA
:100080009DFE0FD5F0E9E4CEFD22EDF8F5F0EE840B
:1000900020D21CFEADF075F008EF2FFFED33FD40D0
:1000A00007985006D5F0F222C398FD0FD5F0EA224A
:1000B000E88FF0A4CC8BF0A42CFCE98EF0A42CFCEF
:1000C0008AF0EDA42CFCEA8EF0A4CDA8F08BF0A46D
:1000D0002DCC3825F0FDE98FF0A42CCD35F0FCEBCC
:1000E0008EF0A4FEA9F0EB8FF0A4CFC5F02ECD3991
:1000F000FEE43CFCEAA42DCE35F0FDE43CFC227588
:10010000F008758200EF2FFFEE33FECD33CDCC33F8
:10011000CCC58233C5829BED9AEC99E58298400C60
:10012000F582EE9BFEED9AFDEC99FC0FD5F0D6E43E
:10013000CEFBE4CDFAE4CCF9A88222B800C1B90024
:1001400059BA002DEC8BF084CFCECDFCE5F0CBF985
:100150007818EF2FFFEE33FEED33FDEC33FCEB337D
:10016000FB10D703994004EB99FB0FD8E5E4F9FAAB
:10017000227818EF2FFFEE33FEED33FDEC33FCC990
:1001800033C910D7059BE99A4007EC9BFCE99AF923
:100190000FD8E0E4C9FAE4CCFB2275F010EF2FFF92
:1001A000EE33FEED33FDCC33CCC833C810D7079BFC
:1001B000EC9AE899400AED9BFDEC9AFCE899F80F5F
:1001C000D5F0DAE4CDFBE4CCFAE4C8F922EB9FF5F4
:1001D000F0EA9E42F0E99D42F0E89C45F022E8609A
:1001E0000FECC313FCED13FDEE13FEEF13FFD8F17C
:1001F00022E4F50BF50AF509F508F50FF50EF50DF6
:10020000F50CF513F512F511F510F514F515F516B5
:100210007B037D01FF1205C81206D512072C7F054E
:100220001207527F061203768F0B8E0A8D098C08F7
:10023000E525B4D02AE524B40725E4F5147FD07E63
:1002400007FDFCAB0BAA0AA909A808C31201CD50EF
:100250000AC28075240B7525B88037D2808033E4BC
:100260007FB87E0BFDFCAB0BAA0AA909A808D31224
:1002700001CD40190514E514940AE49400400AD213
:10028000807524077525D08006C2808005C280E471
:10029000F5147F051203768F0F8E0E8D0D8C0CE5F5
:1002A00027B4D02AE526B40725E4F5157FD07E07CC
:1002B000FDFCAB0FAA0EA90DA80CC31201CD500A6C
:1002C000C28175260B7527B88037D2818033E47FD1
:1002D000B87E0BFDFCAB0FAA0EA90DA80CD3120122
:1002E000CD40190515E515940AE49400400AD28121
:1002F0007526077527D08006C2818005C281E4F586
:10030000157F041203768F138E128D118C10E52940
:10031000B4D02AE528B40725E4F5167FD07E07FD82
:10032000FCAB13AA12A911A810C31201CD500AC226
:100330008275280B7529B88037D2828033E47FB864
:100340007E0BFDFCAB13AA12A911A810D31201CD8C
:1003500040190516E516940AE49400400AD2827505
:1003600028077529D08006C2828005C282E4F5166E
:1003700012078802022374FFF518F519F51AF51B08
:10038000E4F51CF51DF51EF51FF523F522F521F505
:10039000207D01120470E4F517C3E517940AE49474
:1003A000005069120770120704AB07AA06E4FCFDAF
:1003B000E5232FF523E5223EF522ED3521F521EC4D
:1003C0003520F520C3EB9519EA9518500C85181ABD
:1003D00085191B8A188B19800DC3EB951BEA951A9A
:1003E00050048A1A8B1BD3EB951DEA951C400C8593
:1003F0001C1E851D1F8A1C8B1D800DD3EB951FEACB
:10040000951E40048A1E8B1F0517808DAE18AF19EC
:10041000AB07AA06EB251BFBEA351AFAE433F9E42D
:1004200033F8E4FCFDEB251DFBEA351CFAED39F948
:10043000EC38F8EB251FFBEA351EFAED39F9EC38FC
:10044000F8C3E5239BF523E5229AF522E52199F5EA
:1004500021E52098F520E47FE87E80AB23AA22A93D
:1004600021A8201200B0E47BAD7A07F9F802013B25
:10047000EFB40900400302051E900480F828287399
:1004800002049B0204A60204B60204C60204D602B9
:1004900004E60204F602050602051690F00E741F2B
:1004A000F053B2F0807890F00D741FF0E5B254F084
:1004B0004401F5B2806890F007741FF0E5B254F083
:1004C0004402F5B2805890F006741FF0E5B254F083
:1004D0004403F5B2804890F005741FF0E5B254F083
:1004E0004404F5B2803890F004741FF0E5B254F083
:1004F0004405F5B2802890F003741FF0E5B254F083
:100500004406F5B2801890F002741FF0E5B254F082
:100510004407F5B28008E5B254F04408F5B2EDC4E2
:1005200054F0FFE5B2540F4FF5B22278FFE4F6D84D
:10053000FD9000007F007E02E4F0A3DFFCDEFA7590
:100540002E0075812E0205830201F1E493A3F8E4E5
:1005500093A34003F68001F208DFF48029E493A31B
:10056000F85407240CC8C333C4540F4420C8834034
:1005700004F456800146F6DFE4800B010204081003
:1005800020408090079FE47E019360BCA3FF543F0E
:1005900030E509541FFEE493A360010ECF54C0253B
:1005A000E060A840B8E493A3FAE493A3F8E493A32B
:1005B000C8C582C8CAC583CAF0A3C8C582C8CAC58F
:1005C00083CADFE9DEE780BEAA05E5E2540FFEEB51
:1005D000D39E4007E5E254F04BF5E2EF14601B14A4
:1005E000602C2402703F539E3F539EF7752D00757B
:1005F0002C48752BE8752A01802BE59E543F44401A
:10060000F59EE4F52D752C7DF52BF52A8017439E7C
:1006100008E59E543F4480F59E752D00752C12759B
:100620002B7A752A00E59E54F84AF59EE5E2540FB0
:10063000FFEBC39F5007E5E254F04BF5E2AF2DAE60
:100640002CAD2BAC2AAB02A8031201DE8F2D8E2C11
:100650008D2B8C2A22AC07D3E51B940174809480E7
:100660004003751B01A8047401088002C333D8FC41
:10067000F455FBFFA804ED088002C333D8FC4FF506
:10068000FBA8047401088002C333D8FCF455FDFFB5
:10069000AE03A804EE088002C333D8FC4FF5FDAFCB
:1006A00002A804EF088002C333D8FCFFA804740139
:1006B000088002C333D8FCFEF4FD55FC4FF5FCE581
:1006C000FE5DFFA804E51B088002C333D8FC4FF58C
:1006D000FEEE42FA2290F000E4F0A3F0A3F0F51B46
:1006E000FBFAFDFF120655E4F51BFBFAFD7F011234
:1006F0000655E4F51BFBFAFD7F02120655C280C2C7
:1007000081C28222E5AE54407E0060047F018002F7
:100710007F00EF4E60EE53AEBFAFB4EF75F010A4A4
:10072000FFAEF0E5B5540FFDEF4DFF227D017F06D2
:100730001204707D017F051204707D017F04120494
:100740007053B1FE75E1041207B243AE807F01021F
:100750000752E58954FC4401F589D28CEF600E758F
:100760008CE0758AC0308DFDC28D1F80EFC28C2257
:10077000E5AE54107E0060047F0180027F00EF64CC
:10078000014E60EC43AE1022E4F517C3E517940167
:10079000E4940050097F14120752051780ED2204DB
:1007A0002A01E84800022407D0022607D0022807C1
:0607B000D00053AEDF2271
:00000001FF
