:1000000002152EEFC39404E494004004E4FEFF22A2
:10001000EF25E02461F582E43401F583E0FEA3E0FE
:02002000FF22BD
:10002300021A71E5AE54107E0060047F0180027FE6
:0F00330000EF64014E60EC43AE102253AEDF22AB
:070043000216580706050430
:0E004B00021BC3AF4CEF7005754C14F54B2231
:10005B000217D28B268A278928E4F529C3E5299430
:10006B0005748094804003020213E52975F007A400
:10007B00AB262528F9E52735F0FA900006120986FC
:10008B00605BAA27A92875F007E529A4F58285F0FE
:10009B0083120A1AFBAAF07C007D64FFAE021209E0
:1000AB00C58F2A7C007D64AF03AE021209C57E00AA
:1000BB007F0ACFCDCFCECCCE1209C58F2BAB26AAC4
:1000CB002775F007E529A4F58285F083120A1AFF3C
:1000DB00AEF07C007D0A1209C58D2C8007E4F52A51
:1000EB00F52BF52CE52A7067E52B7063E52C705F1B
:1000FB00901D8C93FF4401FEE52925E024B4F58285
:10010B00E4341DF583E49325E024F7F582E4340011
:10011B00F583EEF0E52925E024B4F582E4341DF5F2
:10012B0083E49325E024F8F582E43400F583EFF0C3
:10013B00E52925E024B5F582E4341DF583E4932508
:10014B00E024F7F582E43400F583EEF00201F2E5EA
:10015B002B25E0248CF582E4341DF583E4934401D4
:10016B00FFE52925E024B4F582E4341DF583E493FF
:10017B0025E024F7F582E43400F583EFF0E52B2539
:10018B00E0248DF582E4341DF583E493FFE5292506
:10019B00E024B4F582E4341DF583E49325E024F8E0
:1001AB00F582E43400F583EFF0E52C25E0248CF5A3
:1001BB0082E4341DF583E4934401FFE52925E02413
:1001CB00B5F582E4341DF583E49325E024F7F5823D
:1001DB00E43400F583EFF0E52C25E0248DF582E483
:1001EB00341DF583E493FFE52925E024B5F582E47E
:1001FB00341DF583E49325E024F8F582E43400F50F
:10020B0083EFF00529020067E4F529C3E52994057E
:10021B007480948040030203CEE52975F007A4ABEC
:10022B00262528F9E52735F0FA900002120A1AFB69
:10023B00AAF07C007D64FFAE021209C58F2A7C00F8
:10024B007D64AF03AE021209C57E007F0ACFCDCF0E
:10025B00CECCCE1209C58F2BE52975F007A4AB26A2
:10026B002528F9E52735F0FA900002120A1AFFAE9D
:10027B00F07C007D0A1209C58D2CE52A6003020370
:10028B0017E52B25E024A0F582E4341DF583E493D8
:10029B00FFE52925E024BEF582E4341DF583E493C4
:1002AB0025E024F7F582E43400F583EFF0E52B2508
:1002BB00E024A1F582E4341DF583E4934408FFE5C3
:1002CB002925E024BEF582E4341DF583E49325E073
:1002DB0024F8F582E43400F583EFF0E52C25E024D7
:1002EB00A0F582E4341DF583E493FFE52925E02492
:1002FB00BFF582E4341DF583E49325E024F7F58202
:10030B00E43400F583EFF0E52C02039DE52A25E0AC
:10031B0024A0F582E4341DF583E493FFE52925E061
:10032B0024BEF582E4341DF583E49325E024F7F530
:10033B0082E43400F583EFF0E52A25E024A1F58271
:10034B00E4341DF583E493FFE52925E024BEF58213
:10035B00E4341DF583E49325E024F8F582E43400BE
:10036B00F583EFF0E52B25E024A0F582E4341DF5B1
:10037B0083E493FFE52925E024BFF582E4341DF5E2
:10038B0083E49325E024F7F582E43400F583EFF062
:10039B00E52B25E024A1F582E4341DF583E4934499
:1003AB0008FFE52925E024BFF582E4341DF583E43D
:1003BB009325E024F8F582E43400F583EFF005296A
:1003CB00020216E4F529C3E5299405748094804054
:1003DB0003020724E52975F007A4AB262528F9E5C8
:1003EB002735F0FA900004120A1AF52F85F02EE447
:1003FB00F52D9000061209866053C3E52F94E8E5AE
:10040B002E94034012752D01AE2EAF2F7C007D0A6A
:10041B001209C58E2E8F2FAE2EAF2F7C007D64124E
:10042B0009C58F2AAE2EAF2F7C007D641209C57EC5
:10043B00007F0ACFCDCFCECCCE1209C58F2BAE2EDF
:10044B00AF2F7C007D0A1209C58D2C8009E4F52A9B
:10045B00F52BF52CF52D74342529F8E4F674392594
:10046B0029F87601743E2529F8E4F6AF2AFEEF60F1
:10047B0003020502E52B707FE52C707BE52D707771
:10048B00901DA093FDE52925E024C8F582E4341DD9
:10049B00F583E49325E024F7F582E43400F583ED4E
:1004AB00F0E52925E024C8F582E4341DF583E493B7
:1004BB0025E024F8F582E43400F583EDF0E52925F9
:1004CB00E024C9F582E4341DF583E49325E024F799
:1004DB00F582E43400F583EDF0E52925E024C9F538
:1004EB0082E4341DF583E49325E024F8F582E434AB
:1004FB0000F583ED0205BFEF4E60030205CAE52D43
:10050B0060030205CAE52B25E024A0F582E4341D27
:10051B00F583E493FFE52925E024C8F582E4341D37
:10052B00F583E49325E024F7F582E43400F583EFBB
:10053B00F0E52B25E024A1F582E4341DF583E4934B
:10054B00FFE52925E024C8F582E4341DF583E49307
:10055B0025E024F8F582E43400F583EFF0E52C2553
:10056B00E024A0F582E4341DF583E493FFE529250F
:10057B00E024C9F582E4341DF583E49325E024F7E8
:10058B00F582E43400F583EFF0E52C25E024A1F5AA
:10059B0082E4341DF583E493FFE52925E024C9F5B6
:1005AB0082E4341DF583E49325E024F8F582E434EA
:1005BB0000F583EFF0743E2529F8760102071FD36F
:1005CB00E52A940074809480500302071FE52D6088
:1005DB0003020668E52A25E024A0F582E4341DF524
:1005EB0083E493FFE52925E024C8F582E4341DF567
:1005FB0083E49325E024F7F582E43400F583EFF0F0
:10060B00E52A25E024A1F582E4341DF583E493FF6C
:10061B00E52925E024C8F582E4341DF583E4932510
:10062B00E024F8F582E43400F583EFF0E52B25E0C8
:10063B0024A0F582E4341DF583E493FFE52925E03E
:10064B0024C9F582E4341DF583E49325E024F7F502
:10065B0082E43400F583EFF0E52B0206F5743425C4
:10066B0029F87601E52B25E024A0F582E4341DF56D
:10067B0083E493FFE52925E024C8F582E4341DF5D6
:10068B0083E49325E024F7F582E43400F583EFF05F
:10069B00E52B25E024A1F582E4341DF583E493FFDB
:1006AB00E52925E024C8F582E4341DF583E4932580
:1006BB00E024F8F582E43400F583EFF0E52C25E037
:1006CB0024A0F582E4341DF583E493FFE52925E0AE
:1006DB0024C9F582E4341DF583E49325E024F7F572
:1006EB0082E43400F583EFF0E52C25E024A1F582BC
:1006FB00E4341DF583E493FFE52925E024C9F58255
:10070B00E4341DF583E49325E024F8F582E434000A
:10071B00F583EFF005290203D1E4900109F0A3F072
:10072B00E53964017004E04408F0E53564017007B5
:10073B0090010AE04404F0E49000FFF0A3F0E53BE5
:10074B00640170079000FFE04404F0E5376401702A
:10075B00079000FFE04402F0E53864017007900059
:10076B00FFE04401F0E53664017013901DCC932536
:10077B00E024F8F582E43400F583E04408F0E53436
:10078B0064017013901DC89325E024F8F582E434BE
:10079B0000F583E04408F0E53E64017013901DC939
:1007AB009325E024F8F582E43400F583E04408F067
:1007BB00E53F64017013901DCA9325E024F8F58280
:1007CB00E43400F583E04408F0E5406401701390D5
:1007DB001DCD9325E024F8F582E43400F583E04445
:1007EB0008F0E54164017013901DCE9325E024F8C9
:1007FB00F582E43400F583E04408F0E542640170CF
:10080B0013901DD09325E024F8F582E43400F58392
:10081B00E04408F0E53A64017013901DCB9325E09A
:10082B0024F8F582E43400F583E04408F0E53C64F9
:10083B00017013901DCF9325E024F8F582E434006A
:10084B00F583E04408F0E53D64017013901DD193EE
:10085B0025E024F8F582E43400F583E04408F07BCE
:10086B00017A0079F77D407C00021B94E709F608BA
:10087B00DFFA8046E709F208DFFA803E88828C8334
:10088B00E709F0A3DFFA8032E309F608DFFA807894
:10089B00E309F208DFFA807088828C83E309F0A306
:1008AB00DFFA806489828A83E0A3F608DFFA805836
:1008BB0089828A83E0A3F208DFFA804C80D280FA27
:1008CB0080C680D4806980F28033801080A680EA55
:1008DB00809A80A880DA80E280CA803389828A83FA
:1008EB00ECFAE493A3C8C582C8CCC583CCF0A3C8EB
:1008FB00C582C8CCC583CCDFE9DEE7800D89828A4F
:10090B0083E493A3F608DFF9ECFAA9F0EDFB228957
:10091B00828A83ECFAE0A3C8C582C8CCC583CCF02D
:10092B00A3C8C582C8CCC583CCDFEADEE880DB89EF
:10093B00828A83E493A3F208DFF980CC88F0EF601E
:10094B00010E4E60C388F0ED2402B4040050B9F5DB
:10095B0082EB2402B4040050AF232345822390087A
:10096B00C773BB010689828A83E0225002E722BB50
:10097B00FE02E32289828A83E49322BB010CE58287
:10098B0029F582E5833AF583E0225006E92582F8C2
:10099B00E622BBFE06E92582F8E222E58229F582F2
:1009AB00E5833AF583E49322EF8DF0A4A8F0CF8C86
:1009BB00F0A428CE8DF0A42EFE22BC000BBE002985
:1009CB00EF8DF084FFADF022E4CCF875F008EF2F3B
:1009DB00FFEE33FEEC33FCEE9DEC984005FCEE9DF8
:1009EB00FE0FD5F0E9E4CEFD22EDF8F5F0EE842014
:1009FB00D21CFEADF075F008EF2FFFED33FD400775
:100A0B00985006D5F0F222C398FD0FD5F0EA22BB21
:100A1B000110E58229F582E5833AF583E0F5F0A331
:100A2B00E0225009E92582F886F008E622BBFE0A8F
:100A3B00E92582F8E2F5F008E222E5832AF583E95D
:100A4B0093F5F0A3E99322E88FF0A4CC8BF0A42CC0
:100A5B00FCE98EF0A42CFC8AF0EDA42CFCEA8EF0C1
:100A6B00A4CDA8F08BF0A42DCC3825F0FDE98FF0A8
:100A7B00A42CCD35F0FCEB8EF0A4FEA9F0EB8FF09F
:100A8B00A4CFC5F02ECD39FEE43CFCEAA42DCE3527
:100A9B00F0FDE43CFC2275F008758200EF2FFFEEB1
:100AAB0033FECD33CDCC33CCC58233C5829BED9A8F
:100ABB00EC99E58298400CF582EE9BFEED9AFDECED
:100ACB0099FC0FD5F0D6E4CEFBE4CDFAE4CCF9A833
:100ADB008222B800C1B90059BA002DEC8BF084CF3B
:100AEB00CECDFCE5F0CBF97818EF2FFFEE33FEED12
:100AFB0033FDEC33FCEB33FB10D703994004EB993C
:100B0B00FB0FD8E5E4F9FA227818EF2FFFEE33FE4E
:100B1B00ED33FDEC33FCC933C910D7059BE99A4083
:100B2B0007EC9BFCE99AF90FD8E0E4C9FAE4CCFB9B
:100B3B002275F010EF2FFFEE33FEED33FDCC33CCEF
:100B4B00C833C810D7079BEC9AE899400AED9BFD78
:100B5B00EC9AFCE899F80FD5F0DAE4CDFBE4CCFA8B
:100B6B00E4C8F922EB9FF5F0EA9E42F0E99D42F0D2
:100B7B00E89C45F022E8600FECC313FCED13FDEE8F
:100B8B0013FEEF13FFD8F122ECF0A3EDF0A3EEF080
:100B9B00A3EFF022A8828583F0D083D082120BB60C
:100BAB00120BB6120BB6120BB6E473E493A3C58308
:100BBB00C5F0C583C8C582C8F0A3C583C5F0C5837E
:100BCB00C8C582C822EC8EF0A4CCC5F0CCCDF8EF12
:100BDB00A4CEC5F02DFDE43CFCE8A42EC8C5F03D29
:100BEB00FDE43CFCEFA4FFE5F028FEE43DFDE43C16
:100BFB00FC22E4F520C3E5209404E494005032AFCA
:100C0B0020120003E52025E02480F582E43400F572
:100C1B0083EEF0A3EFF0AF20121C87E52025E02434
:100C2B0088F582E43400F583EEF0A3EFF005208025
:100C3B00C4E4FF121A25900090EEF0A3EFF0E4FF4E
:100C4B00121B61900092120B937F01121A259000D8
:100C5B0096EEF0A3EFF07F01121B61900098120B40
:100C6B0093E4F520C3E5209404E4940050507B00FA
:100C7B007A007921AF20121B28E52075F00BA424F4
:100C8B009CF582E43400F583E521F0A3E522F0AE78
:100C9B0023AF24E4FCFDE52075F00BA4249EF58224
:100CAB00E43400F583120B93E52075F00BA424A616
:100CBB00F582E43400F583E525F0052080A690004D
:100CCB0096E0FFA3E09000C8CFF0A3EFF090009860
:100CDB00E0FCA3E0FDA3E0FEA3E0FF9000CA120B33
:100CEB00939000D27401F0E4F520C3E5209405E461
:100CFB0094004003020E9EE52075F00BA4249CF596
:100D0B0082E43400F583E0FEA3E0FFE4FCFDE52084
:100D1B0075F00BA4249EF582E43400F583E0F8A370
:100D2B00E0F9A3E0FAA3E0FB120A52E47BE87A03B2
:100D3B00F9F8120ADDE52075F00BA424A2F582E484
:100D4B003400F583120B93E52075F00BA4249EF56C
:100D5B0082E43400F583E0FCA3E0FDA3E0FEA3E016
:100D6B00FFE47B64FAF9F8120ADDE47BFF7AFFF902
:100D7B00F8C3120B6FE520501475F007A424D3F5BC
:100D8B0082E43400F58374FFF0A3F0803575F00B2B
:100D9B00A4249EF582E43400F583E0FCA3E0FDA3DC
:100DAB00E0FEA3E0FFE47B64FAF9F8120ADDE5202C
:100DBB0075F007A424D3F582E43400F583EEF0A399
:100DCB00EFF0E52075F00BA4249CF582E43400F5DC
:100DDB0083E0FEA3E0FF7C007D641209C5E520756E
:100DEB00F007A424D5F582E43400F583EEF0A3EFED
:100DFB00F0E52075F00BA424A2F582E43400F58312
:100E0B00E0FCA3E0FDA3E0FEA3E0FFE47B64FAF9C2
:100E1B00F8120ADDE47BFF7AFFF9F8C3120B6FE5DA
:100E2B0020501475F007A424D7F582E43400F58321
:100E3B0074FFF0A3F0803575F00BA424A2F582E4C7
:100E4B003400F583E0FCA3E0FDA3E0FEA3E0FFE4A8
:100E5B007B64FAF9F8120ADDE52075F007A424D7B4
:100E6B00F582E43400F583EEF0A3EFF0E52075F0A6
:100E7B000BA424A6F582E43400F583E0FFE520758E
:100E8B00F007A424D9F582E43400F583EFF00520B4
:100E9B00020CF5121D52EF600F9000F6E07F007010
:100EAB00027F019000F6EFF09000F6E0FF121D4379
:100EBB00121D21C3EF9556FDEE9555FCC3ED9464C1
:100ECB00EC9400400D8E558F567B017A0079D3122E
:100EDB00005E229000F67401F01216DFE4FBEBC308
:100EEB009404E494005023EB25E02480F582E43451
:100EFB0000F583E4F0A3F0EB25E02488F582E434DD
:100F0B0000F583E4F0A3F00B80D4E4FBEBC3940572
:100F1B00748094805049EB75F007A424D3F582E4D8
:100F2B003400F583E4F0A3F0EB75F007A424D5F5BA
:100F3B0082E43400F583E4F0A3F0EB75F007A4240E
:100F4B00D7F582E43400F583E4F0A3F0EB75F007FA
:100F5B00A424D9F582E43400F583E4F00B80ADE4EE
:100F6B00FBEBC39405E49400504FEB75F00BA424FA
:100F7B009CF582E43400F583E4F0A3F0EB75F00B01
:100F8B00A4249EF582E43400F583120B9F0000002D
:100F9B0000EB75F00BA424A2F582E43400F5831268
:100FAB000B9F00000000EB75F00BA424A6F582E468
:100FBB003400F583E4F00B80A8E4FBEBC39402E46C
:100FCB009400502AEB75F006A42490F582E43400CB
:100FDB00F583E4F0A3F0EB75F006A42492F582E41C
:100FEB003400F583120B9F000000000B80CD021C18
:100FFB003DC2ACE4FFEFC39402E49400500F744580
:10100B002FF8E4F674482FF8E4F60F80E8E4F54483
:10101B00F547F54390F006F07D01FC7F06121AB4FC
:10102B00E4FD7F011219387D027F0612193890F00A
:10103B0024E054FDF053A9FDA3E0548FF090F0246D
:10104B00E054FEF0A3E054F84404F090F024E05494
:10105B00FBF090F02374FCF090F02274BFF090F052
:10106B002174FEF090F020745FF090F025E0448046
:10107B00F090F024E054DFF0E054EFF043B902437A
:10108B00A9027D017C007F01121AB490F001740556
:10109B00F0C28EC28FC2AD53897F5389BFE589548D
:1010AB00CF4420F589758DE6758BE6E598543F4462
:1010BB0040F598C29DD29CE59754DF4420F59743A9
:1010CB008780C298C29943B81053C0FD53C0BFD29A
:1010DB008ED2AC43A910D2AF22AC07ECD3940174DF
:1010EB00809480400ED3E524940174809480400357
:1010FB00752401ECD3940174809480401FA8047470
:10110B0001088002C333D8FCF45595FFA804E524ED
:10111B00088002C333D8FC4FF5958020EC25E0FF07
:10112B00F87403088002C333D8FCF45596FEA80765
:10113B00E524088002C333D8FC4EF596A80474014D
:10114B00088002C333D8FCF45592FFA804ED088045
:10115B0002C333D8FC4FF592A8047401088002C374
:10116B0033D8FCF45594FFAE03A804EE088002C3F9
:10117B0033D8FC4FF594AF02A804EF088002C333B9
:10118B00D8FCFFA8047401088002C333D8FCFEF41A
:10119B0055934FF593EE429122EFB40900400302B1
:1011AB0012529011B4F82828730211CF0211DA02EF
:1011BB0011EA0211FA02120A02121A02122A02127E
:1011CB003A02124A90F00E741FF053B2F0807890EE
:1011DB00F00D741FF0E5B254F04401F5B280689045
:1011EB00F007741FF0E5B254F04402F5B28058904A
:1011FB00F006741FF0E5B254F04403F5B28048904A
:10120B00F005741FF0E5B254F04404F5B280389049
:10121B00F004741FF0E5B254F04405F5B280289049
:10122B00F003741FF0E5B254F04406F5B280189049
:10123B00F002741FF0E5B254F04407F5B28008E5F4
:10124B00B254F04408F5B2EDC454F0FFE5B2540FBC
:10125B004FF5B2228D21A907745329F8E6FF7021AF
:10126B00E52164A56003021316E975F00BA4244B6A
:10127B00F582E43401F583E521F0745329F8760106
:10128B0022E975F00BA4244BF582E43401F583E5D8
:10129B00822FF582E43583F583E521F00FEFC394BC
:1012AB000BE494005007745329F8A60722E975F054
:1012BB000BA42455F582E43401F583E0645A7023C2
:1012CB00E975F00BA4244CF582E43401F583E0D3EB
:1012DB009403E49400500CAF011213CE745329F80D
:1012EB00E4F622E52164A57F0070027F0174532987
:1012FB00F8A607745329F8E66011E975F00BA424DE
:10130B004BF582E43401F583E521F022EF25E0254E
:10131B00E0FFC290C2910000000000000000D292DA
:10132B000000000000000000D2910000000000004F
:10133B000000C2910000000000000000C2920000FB
:10134B00000000000000D29100000000000000002F
:10135B00C2910000000000000000D29200000000CB
:10136B0000000000D2910000000000000000E4FE2D
:10137B00EEC39406748094805017C291EF3392920F
:10138B000000000000000000D291EF25E0FF0E806E
:10139B00DFE4FEEEC3940474809480501FC291ED81
:1013AB001392920000000000000000D29100000098
:1013BB000000000000EDC313FD0E80D7C291C29256
:1013CB00D29022EF75F00BA4244BF582E43401ADDF
:1013DB0082F5228D23F583A3E0FBEF25E0FAE523CD
:1013EB002402121CF8EA75F005A42437F582E434C4
:1013FB0001F583EEF0A3EFF0E5232404121CF8EAC9
:10140B0075F005A42439F582E43401F583EEF0A3DD
:10141B00EFF0EB54017F0060027F01EA75F005A449
:10142B00243BF582E43401F583EFF0E52324061227
:10143B001CF8EA75F005A4243CF582E43401F5832D
:10144B00EEF0A3EFF0E5232408121CF8EA75F00583
:10145B00A4243EF582E43401F583EEF0A3EFF0EB28
:10146B0054027F0060027F01EA75F005A42440F569
:10147B0082E43401F583EFF022C290C291000000A8
:10148B000000000000D2920000000000000000D21B
:10149B00910000000000000000C29100000000005D
:1014AB00000000C2920000000000000000D291007A
:1014BB0000000000000000C29100000000000000CE
:1014CB0000C2920000000000000000D2910000005A
:1014DB000000000000E4FEEEC3940874809480507A
:1014EB0017C291EF3392920000000000000000D26F
:1014FB0091EF25E0FF0E80DFC2910000000000009D
:10150B000000C2920000000000000000D291000019
:10151B00000000000000C29100000000000000006D
:10152B00D2902278FFE4F6D8FD9000007F007E0277
:10153B00E4F0A3DFFCDEFA755800758158021586BE
:10154B00021D0DE493A3F8E493A34003F68001F28C
:10155B0008DFF48029E493A3F85407240CC8C333A1
:10156B00C4540F4420C8834004F456800146F6DF70
:10157B00E4800B0102040810204080901D4BE47E98
:10158B00019360BCA3FF543F30E509541FFEE49365
:10159B00A360010ECF54C025E060A840B8E493A32C
:1015AB00FAE493A3F8E493A3C8C582C8CAC583CA57
:1015BB00F0A3C8C582C8CAC583CADFE9DEE780BE0F
:1015CB00AA05E5E2540FFEEBD39E4007E5E254F08B
:1015DB004BF5E2EF14601B14602C2402703F539EFA
:1015EB003F539EF77552007551487550E8754F0182
:1015FB00802BE59E543F4440F59EE4F55275517D9A
:10160B00F550F54F8017439E08E59E543F4480F5F7
:10161B009E75520075511275507A754F00E59E54A8
:10162B00F84AF59EE5E2540FFFEBC39F5007E5E246
:10163B0054F04BF5E2AF52AE51AD50AC4FAB02A8EC
:10164B0003120B808F528E518D508C4F22C0E0C0F5
:10165B0083C082C0D075D01890F024E030E56CE0E8
:10166B0054DFF0AF44EF6401701EE543C313F54341
:10167B003086034343800547AF47C3EF9408E49498
:10168B000040487544028043AF44EF6402703C90C5
:10169B00F024E054FDF075440053C0BFE5AA54CFCD
:1016AB004420F5AA308624E54604FFC39440E49415
:1016BB000040027F00EF65496011AE4674402EF585
:1016CB0082E43400F583E543F08F46D0D0D082D04E
:1016DB0083D0E032E4FFEFC39402E4940050307403
:1016EB00532FF8E4F6FEEEC3940BE49400501DEF79
:1016FB0075F00BA4244BF582E43401F583E5822EBF
:10170B00F582E43583F583E4F00E80DA0F80C7E4CD
:10171B00FFEFC39404E494005037EF75F005A42455
:10172B0037F582E43401F583E4F0A3F0EF75F005AF
:10173B00A42439F582E43401F583E4F0A3F0EF75CA
:10174B00F005A4243BF582E43401F583E4F00F802B
:10175B00C02290F00FE4F07D01FC7F07121AEE7DA2
:10176B00027F0712198753C87FE47B02FAF9F8AF9F
:10177B0052AE51AD50AC4F120ADDE47BE87A03F95F
:10178B00F8120ADD8F238E228D218C20C3E49FFF5C
:10179B00E49EAD07FC53F4BFE5F454F84401F5F4B3
:1017AB00AF04EFF5F5AF05EFF5F653F47F53B9FB47
:1017BB0043A90443F44043A910D2AFE4F54DF54ED1
:1017CB00F54CF54BF54A22C0E0C0F0C083C082C097
:1017DB00D075D010E5C030E63653C0BFAF44EF70C4
:1017EB002E90F024E054FDF090F02174FEF090F078
:1017FB0020745FF090F024E054DFF0E054EFF075CC
:10180B004401E04402F053AACF754700754300E54D
:10181B00C830E70653C87F12004ED0D0D082D08399
:10182B00D0F0D0E03290F008E4F0A3F0A3F0F52470
:10183B007B01FAFDFF1210E4E4F5247B01FAFD7F36
:10184B00011210E4E4F5247B01FAFD7F021210E48F
:10185B00D290D291C2927F011214847F031214840E
:10186B007F181214847FE3121484E4FCECC39440BD
:10187B0074809480500AAF04E4FD1213170C80ECB3
:10188B0022E55790004693FF7D011211A41200260A
:10189B00121BEDE55725E02461F582E43401F58355
:1018AB00EEF0A3EFF07C0C7DE4120BD0E47BFF7A1F
:1018BB000FF9F8120ADDE55725E02469F582E434C7
:1018CB0001F583EEF0A3EFF00557C3E5579404E45D
:1018DB0094004003E4F55722EFC39402E4940050C4
:1018EB000E74482FF8E6FE74452FF8E6B506037F15
:1018FB00002274482FF8E6FEEF75F040A42400F5A3
:10190B0082E43400F583E5822EF582E43583F5839A
:10191B00E0FE74482FF80674482FF8E6C39440E4B1
:10192B009400400674482FF8E4F6AF0622EF25E04A
:10193B00FEF87403088002C333D8FCF455ABFCA843
:10194B0006ED088002C333D8FC4CF5ABEF131354F0
:10195B003FFE75F003A4FCEF540325E0FBF8EC0805
:10196B008002C333D8FCF455AAFCEE8DF0A4FEA87C
:10197B0003088002C333D8FC4CF5AA22EF25E0FE06
:10198B00F87403088002C333D8FCF455ADFCA806E9
:10199B00ED088002C333D8FC4CF5ADEF1313543F65
:1019AB00FE75F003A4FCEF540325E0FBF8EC088074
:1019BB0002C333D8FCF455ACFCEE8DF0A4FEA803A7
:1019CB00088002C333D8FC4CF5AC22E4F557F52064
:1019DB00C3E5209404E494005032E52025E0246113
:1019EB00F582E43401F583E4F0A3F0E52025E0244F
:1019FB0069F582E43401F583E4F0A3F0E52090006F
:101A0B004693FF7D011211A4052080C475E10412D9
:101A1B00003E43AE807F01021CC5EFD39401E494DA
:101A2B00004004E4FEFF22EF25E02469F582E43454
:101A3B0001F583E0FEA3E0FF7C007D0B120BD08F42
:101A4B00298E288D278C26E47FFF7EFFFDFCAB299A
:101A5B00AA28A927A826D3120B6F40057EFF7FFF6C
:101A6B0022AE28AF2922C0E0C083C082C0D075D07F
:101A7B0008309827AF99C298E54504FEC39440E41B
:101A8B00940040027E00EE65486010AD4574002D59
:101A9B00F582E43400F583EFF08E45309902C2995C
:101AAB00D0D0D082D083D0E032AB07A8037401082A
:101ABB008002C333D8FCFAF4F955FDFFAE05A80339
:101ACB00EE088002C333D8FC4FF5FDAF04A803EF3B
:101ADB00088002C333D8FCFFE5FC594FF5FCEAF450
:101AEB0052FA22AB07A8037401088002C333D8FC57
:101AFB00FAF4F95594FFAE05A803EE088002C33340
:101B0B00D8FC4FF594AF04A803EF088002C333D879
:101B1B00FCFFE593594FF593EAF45291228B268AF9
:101B2B00278928EFC39404E494005008AC02AD015C
:101B3B00ED4C70037F0022EF75F005A42437F97488
:101B4B000135F0FA7B01A828AC27AD267E007F0576
:101B5B001209477F0122EFD39401E494004006E47D
:101B6B00FFFEFDFC22EF240225E02469F582E4341C
:101B7B0001F583E0FEA3E0FF7C037DE8120BD0E4CC
:101B8B007B32FAF9F8120ADD228C308D31E4F53212
:101B9B00F533C3E5339531E5329530501AAF331237
:101BAB00096DFD121317740129F9E43AFA0533E5AF
:101BBB003370DF053280DB22C0E0C0D075D000C0AF
:101BCB000753F47F054EE54E7002054DAF4CEF60A9
:101BDB000A154CAF4CEF7003754B01D007D0D0D02A
:101BEB00E032E5AE54407E0060047F0180027F004E
:101BFB00EF4E60EE53AEBFAFB4EF75F010A4FFAE77
:101C0B00F0E5B5540FFDEF4DFF22E4F520C3E520C1
:101C1B009402E49400501AAF20121CA6EF600EAF92
:101C2B00201218E3AD07AF2012125F80EA05208067
:101C3B00DC22E4FFEFC3944074809480500F74F760
:101C4B002FF582E43400F583E4F00F80E77B017A13
:101C5B000079F77D407C00021B947B037D01E4FF40
:101C6B001215CB121CE31218301219D612175DC2C3
:101C7B00AF7F007E4B7D007C00020FFCEFC3940412
:101C8B00E494004004E4FEFF22EF25E02469F58292
:101C9B00E43401F583E0FEA3E0FF22EFC39402E4FA
:101CAB00940040037F002274482FF8E6FE74452F02
:101CBB00F8E66E7F0060027F0122E58954FC440147
:101CCB00F589D28CEF600E758CE0758AC0308DFD76
:101CDB00C28D1F80EFC28C2290F00BE4F0F5247BB9
:101CEB0001FAFD7F031210E47F01021D43FFE4356F
:101CFB0022FEAD07AC068D828C83E0FEA3E0FDEDEA
:101D0B00FF22121C65120EDE121C1512188C121DEE
:101D1B0034120BFD80F2A2AFE433C2AFAB4EAA4D2F
:101D2B0024FF92AFAE02AF0322AF4BEF6009E4F595
:101D3B004B209703754A0122EFC36001D392932284
:101D4B00044F01E8480000AF4AE4F54A220B0007B4
:101D5B00050C0D0F000F0D0B0007050C0D0F000FE1
:101D6B000D0B0007050C0D0E060C0E060A0A0E0EC7
:101D7B000E0E060C0E060A0A0E0E0E0E060C0E06A4
:101D8B000A0E0E0804060D0A0D08070A0B0E0B08A7
:101D9B000C0E0F0A0F070702010B060B050E010DA8
:101DAB00050D0703010F070F050C0D0E0F10111278
:101DBB00131415161718191A1B1C1D1E1F0B0A08B6
:071DCB0007060503020100F9
:00000001FF
