:1000000002079BEFC39402E4940040037F00227434
:100010003F2FF8E6FE743D2FF8E66E7F0060027F0A
:020020000122BB
:100023000208388B368A378938AE02AF01EF4E604B
:1000330013A801AC02AD037B017A0179217E007F15
:050043001E12012E2237
:0E004B00020B25AF1AEF7005751A14F5192275
:10005B00020AFAE709F608DFFA8046E709F208DF39
:10006B00FA803E88828C83E709F0A3DFFA8032E3C3
:10007B0009F608DFFA8078E309F208DFFA80708866
:10008B00828C83E309F0A3DFFA806489828A83E0A0
:10009B00A3F608DFFA805889828A83E0A3F208DF8F
:1000AB00FA804C80D280FA80C680D4806980F2803E
:1000BB0033801080A680EA809A80A880DA80E28064
:1000CB00CA803389828A83ECFAE493A3C8C582C8B9
:1000DB00CCC583CCF0A3C8C582C8CCC583CCDFE923
:1000EB00DEE7800D89828A83E493A3F608DFF9ECBF
:1000FB00FAA9F0EDFB2289828A83ECFAE0A3C8C54A
:10010B0082C8CCC583CCF0A3C8C582C8CCC583CC70
:10011B00DFEADEE880DB89828A83E493A3F208DFDF
:10012B00F980CC88F0EF60010E4E60C388F0ED24AF
:10013B0002B4040050B9F582EB2402B4040050AFB2
:10014B0023234582239000AE73BB010689828A83E9
:10015B00E0225002E722BBFE02E32289828A83E47B
:10016B009322BB010CE58229F582E5833AF583E006
:10017B00225006E92582F8E622BBFE06E92582F825
:10018B00E222E58229F582E5833AF583E49322EFB7
:10019B008DF0A4A8F0CF8CF0A428CE8DF0A42EFE69
:1001AB0022BC000BBE0029EF8DF084FFADF022E4E2
:1001BB00CCF875F008EF2FFFEE33FEEC33FCEE9D21
:1001CB00EC984005FCEE9DFE0FD5F0E9E4CEFD2248
:1001DB00EDF8F5F0EE8420D21CFEADF075F008EFD3
:1001EB002FFFED33FD4007985006D5F0F222C39850
:1001FB00FD0FD5F0EA22C5F0F8A3E028F0C5F0F822
:10020B00E582158270021583E038F022BB0110E500
:10021B008229F582E5833AF583E0F5F0A3E02250DD
:10022B0009E92582F886F008E622BBFE0AE9258259
:10023B00F8E2F5F008E222E5832AF583E993F5F07D
:10024B00A3E99322E88FF0A4CC8BF0A42CFCE98ECD
:10025B00F0A42CFC8AF0EDA42CFCEA8EF0A4CDA823
:10026B00F08BF0A42DCC3825F0FDE98FF0A42CCD2C
:10027B0035F0FCEB8EF0A4FEA9F0EB8FF0A4CFC50C
:10028B00F02ECD39FEE43CFCEAA42DCE35F0FDE496
:10029B003CFC2275F008758200EF2FFFEE33FECD8C
:1002AB0033CDCC33CCC58233C5829BED9AEC99E52B
:1002BB008298400CF582EE9BFEED9AFDEC99FC0FBB
:1002CB00D5F0D6E4CEFBE4CDFAE4CCF9A88222B883
:1002DB0000C1B90059BA002DEC8BF084CFCECDFC08
:1002EB00E5F0CBF97818EF2FFFEE33FEED33FDEC95
:1002FB0033FCEB33FB10D703994004EB99FB0FD87E
:10030B00E5E4F9FA227818EF2FFFEE33FEED33FD1B
:10031B00EC33FCC933C910D7059BE99A4007EC9B1A
:10032B00FCE99AF90FD8E0E4C9FAE4CCFB2275F0AA
:10033B0010EF2FFFEE33FEED33FDCC33CCC833C8BB
:10034B0010D7079BEC9AE899400AED9BFDEC9AFCC1
:10035B00E899F80FD5F0DAE4CDFBE4CCFAE4C8F970
:10036B0022EB9FF5F0EA9E42F0E99D42F0E89C45B6
:10037B00F022E8600FECC313FCED13FDEE13FEEF60
:10038B0013FFD8F122ECF0A3EDF0A3EEF0A3EFF006
:10039B0022A8828583F0D083D0821203B31203B3D9
:1003AB001203B31203B3E473E493A3C583C5F0C57F
:1003BB0083C8C582C8F0A3C583C5F0C583C8C582F1
:1003CB00C822EC8EF0A4CCC5F0CCCDF8EFA4CEC5F2
:1003DB00F02DFDE43CFCE8A42EC8C5F03DFDE43C4B
:1003EB00FCEFA4FFE5F028FEE43DFDE43CFC228D90
:1003FB0031A907741D29F8E6FF7021E53164A5606A
:10040B0003020519E975F00BA4243FF582E43401CE
:10041B00F583E531F0741D29F8760122E975F00BAF
:10042B00A4243FF582E43401F583E5822FF582E4C1
:10043B003583F583E531F00FEFC3940BE494005053
:10044B0007741D29F8A60722E975F00BA42449F5BA
:10045B0082E43401F583E0645A7078E975F00BA4FB
:10046B002440F582E43401F583E0D39403E4940053
:10047B005061AF011206E5E4FFEFC3940BE4940067
:10048B005037E975F00BA4243FF582E43401F58372
:10049B00E5822FF582E43583F583E0FEE975F00BF9
:1004AB00A42429F582E43401F583E5822FF582E457
:1004BB003583F583EEF00F80C0E925E02421F5822A
:1004CB00E43401F583E475F001120201741D29F87F
:1004DB00E4F622E925E02425F582E43401F583E4F2
:1004EB0075F001120201E53164A57F0070027F01F6
:1004FB00741D29F8A607741D29F8E66011E975F03B
:10050B000BA4243FF582E43401F583E531F022C2DC
:10051B00ACE4FFEFC39402E49400507C743D2FF8DD
:10052B00E4F6743F2FF8E4F6EF25E024B1F582E40E
:10053B003400F583E4F0A3F0EF25E024B5F582E475
:10054B003400F583E4F0A3F0EF25E024B9F582E461
:10055B003400F583E4F0A3F0EF25E024BDF582E44D
:10056B003400F583E4F0A3F0EF25E024C1F582E439
:10057B003400F583E4F0A3F0EF25E024C5F582E425
:10058B003400F583E4F0A3F074C92FF582E4340052
:10059B00F583E4F00F02051EE49000CBF0A3F0907E
:1005AB00F0017405F090F006E4F07D01FC7F06127B
:1005BB000A5AE4FD7F011209C6E4FD7F061209C643
:1005CB0090F024E054FDF053A9FDA3E0547FF0908C
:1005DB00F024E054DFF0E054EFF0C28EC28FC2ADD6
:1005EB0053897F5389BFE58954CF4420F589758D95
:1005FB00E6758BE6E598543F4440F598C29DD29C36
:10060B00E59754DF4420F597438780C298C29943FE
:10061B00B81053C0FD53C0BFD28ED2AC43A910D279
:10062B00AF22E4FFEFC39402E49400506A741D2FD1
:10063B00F8E4F6EF25E02421F582E43401F583E4B8
:10064B00F0A3F0EF25E02425F582E43401F583E4F3
:10065B00F0A3F0FEEEC3940BE494005037EF75F06B
:10066B000BA4243FF582E43401F583E5822EF58259
:10067B00E43583F583E4F0EF75F00BA42429F582C0
:10068B00E43401F583E5822EF582E43583F583E4CA
:10069B00F00E80C00F808DE4FFEFC39404E4940050
:1006AB005037EF75F005A4240DF582E43401F58382
:1006BB00E4F0A3F0EF75F005A4240FF582E4340108
:1006CB00F583E4F0A3F0EF75F005A42411F582E4B3
:1006DB003401F583E4F00F80C022EF75F00BA424F6
:1006EB003FF582E43401AD82F5328D33F583A3E01F
:1006FB00FBEF25E0FAE5332402120B8FEA75F005C8
:10070B00A4240DF582E43401F583EEF0A3EFF0E5BC
:10071B00332404120B8FEA75F005A4240FF582E441
:10072B003401F583EEF0A3EFF0EB54017F00600290
:10073B007F01EA75F005A42411F582E43401F583F9
:10074B00EFF0E5332406120B8FEA75F005A42412A3
:10075B00F582E43401F583EEF0A3EFF0E5332408E2
:10076B00120B8FEA75F005A42414F582E43401F51D
:10077B0083EEF0A3EFF0EB54027F0060027F01EAFF
:10078B0075F005A42416F582E43401F583EFF0220D
:10079B0078FFE4F6D8FD9000007F007E02E4F0A322
:1007AB00DFFCDEFA7543007581430207F3020BA4ED
:1007BB00E493A3F8E493A34003F68001F208DFF47B
:1007CB008029E493A3F85407240CC8C333C4540FF3
:1007DB004420C8834004F456800146F6DFE4800BC6
:1007EB000102040810204080900BB2E47E0193605C
:1007FB00BCA3FF543F30E509541FFEE493A36001F3
:10080B000ECF54C025E060A840B8E493A3FAE4935C
:10081B00A3F8E493A3C8C582C8CAC583CAF0A3C80A
:10082B00C582C8CAC583CADFE9DEE780BEC0E0C0A7
:10083B0083C082C0D075D008309875AE99C298909D
:10084B0000B2E004F070069000B1E004F0E53D0466
:10085B00FDC39440E4940040027D00ED653F60428F
:10086B00AC3D74CD2CF582E43400F583EEF08D3D78
:10087B009000C6E004F070069000C5E004F0E53D82
:10088B00C3953F4007E53D953FFF8008C3744095F6
:10089B003F253DFF9000C9E0FEEFD39E4012EFF0E5
:1008AB00800E9000B6E004F070069000B5E004F006
:1008BB00309902C299D0D0D082D083D0E032AA0531
:1008CB00E5E2540FFEEBD39E4007E5E254F04BF507
:1008DB00E2EF14601B14602C2402703F539E3F53B5
:1008EB009EF7753C00753B48753AE8753901802BCE
:1008FB00E59E543F4440F59EE4F53C753B7DF53A4F
:10090B00F5398017439E08E59E543F4480F59E754C
:10091B003C00753B12753A7A753900E59E54F84ADE
:10092B00F59EE5E2540FFFEBC39F5007E5E254F051
:10093B004BF5E2AF3CAE3BAD3AAC39AB02A8031280
:10094B00037D8F3C8E3B8D3A8C39227B017A00796B
:10095B0077120ACD7B017A007993120026E4F530E9
:10096B00C3E5309402E4940050507B007A00793157
:10097B00AF30120A94E53075F00BA4241CF582E419
:10098B003400F583E531F0A3E532F0AE33AF34E458
:10099B00FCFDE53075F00BA4241EF582E43400F564
:1009AB0083120390E53075F00BA42426F582E43412
:1009BB0000F583E535F0053080A622EF25E0FEF843
:1009CB007403088002C333D8FCF455ABFCA806EDC6
:1009DB00088002C333D8FC4CF5ABEF1313543FFE26
:1009EB0075F003A4FCEF540325E0FBF8EC08800240
:1009FB00C333D8FCF455AAFCEE8DF0A4FEA8030873
:100A0B008002C333D8FC4CF5AA22EFC39402E494C2
:100A1B0000500E743F2FF8E6FE743D2FF8E6B50636
:100A2B00037F0022743F2FF8E624CDF582E43400D7
:100A3B00F583E0FE743F2FF806743F2FF8E6C3945E
:100A4B0040E494004006743F2FF8E4F6AF0622AB67
:100A5B0007A8037401088002C333D8FCFAF4F955D4
:100A6B00FDFFAE05A803EE088002C333D8FC4FF59B
:100A7B00FDAF04A803EF088002C333D8FCFFE5FCED
:100A8B00594FF5FCEAF452FA228B368A378938EF44
:100A9B00C39404E494005008AC02AD01ED4C700318
:100AAB007F0022EF75F005A4240DF9740135F0FADF
:100ABB007B01A838AC37AD367E007F0512012E7F47
:100ACB0001228B368A378938AE02AF01EF4E601E9A
:100ADB00A2AF9200C2AFA801AC02AD037B017A00BA
:100AEB0079B17E007F1C12012E300002D2AF22C0E2
:100AFB00E0C0F0C083C082C0D075D010E5C030E636
:100B0B000353C0BFE5C830E70653C87F12004ED071
:100B1B00D0D082D083D0F0D0E032C0E0C0D075D03E
:100B2B0000C00753F47F051CE51C7002051BAF1AB0
:100B3B00EF600A151AAF1AEF7003751901D007D0C1
:100B4B00D0D0E032E4F530C3E5309402E4940050A9
:100B5B001AAF30120003EF600EAF30120A15AD075B
:100B6B00AF301203FA80EA053080DC227B037D0173
:100B7B00E4FF1208C97F007E4B7D007C0012051A32
:100B8B0053A9EF22FFE43532FEAD07AC068D828C04
:100B9B0083E0FEA3E0FDEDFF22120B7712062D1270
:0E0BAB000B4F12095680F8043901E84800008B
:00000001FF
