:100000000216A17B037D01E4FF1217CF121DB5126A
:1000100018D1121A227F007E4B7D007C0012114401
:1000200002185C02173E8B278A288929AE02AF018D
:10003000EF4E6013A801AC02AD037B017A01792178
:090040007E007F1E1209472222F6
:0E004B00021C69AF1AEF7005751A14F5192220
:10005B00021C3E8B278A288929E4F52AC3E52A94BA
:10006B0005748094804003020213E52A75F007A4FF
:10007B00AB272529F9E52835F0FA900006120986F9
:10008B00605BAA28A92975F007E52AA4F58285F0FB
:10009B0083120A30FBAAF07C007D64FFAE021209CA
:1000AB00C58F2B7C007D64AF03AE021209C57E00A9
:1000BB007F0ACFCDCFCECCCE1209C58F2CAB27AAC2
:1000CB002875F007E52AA4F58285F083120A30FF24
:1000DB00AEF07C007D0A1209C58D2D8007E4F52B4F
:1000EB00F52CF52DE52B7067E52C7063E52D705F16
:1000FB00901E4E93FF4401FEE52A25E02476F582FF
:10010B00E4341EF583E49325E02455F582E43401B1
:10011B00F583EEF0E52A25E02476F582E4341EF52E
:10012B0083E49325E02456F582E43401F583EFF064
:10013B00E52A25E02477F582E4341EF583E4932544
:10014B00E02455F582E43401F583EEF00201F2E58B
:10015B002C25E0244EF582E4341EF583E493440110
:10016B00FFE52A25E02476F582E4341EF583E4933B
:10017B0025E02455F582E43401F583EFF0E52C25D9
:10018B00E0244FF582E4341EF583E493FFE52A2542
:10019B00E02476F582E4341EF583E49325E02456BF
:1001AB00F582E43401F583EFF0E52D25E0244EF5DF
:1001BB0082E4341EF583E4934401FFE52A25E02411
:1001CB0077F582E4341EF583E49325E02455F5821C
:1001DB00E43401F583EFF0E52D25E0244FF582E4BF
:1001EB00341EF583E493FFE52A25E02477F582E4BA
:1001FB00341EF583E49325E02456F582E43401F5AF
:10020B0083EFF0052A020067E4F52AC3E52A94057B
:10021B007480948040030203CEE52A75F007A4ABEB
:10022B00272529F9E52835F0FA900002120A30FB50
:10023B00AAF07C007D64FFAE021209C58F2B7C00F7
:10024B007D64AF03AE021209C57E007F0ACFCDCF0E
:10025B00CECCCE1209C58F2CE52A75F007A4AB279F
:10026B002529F9E52835F0FA900002120A30FFAE85
:10027B00F07C007D0A1209C58D2DE52B600302036E
:10028B0017E52C25E02462F582E4341EF583E49314
:10029B00FFE52A25E02480F582E4341EF583E49300
:1002AB0025E02455F582E43401F583EFF0E52C25A8
:1002BB00E02463F582E4341EF583E4934408FFE500
:1002CB002A25E02480F582E4341EF583E49325E0AF
:1002DB002456F582E43401F583EFF0E52D25E02477
:1002EB0062F582E4341EF583E493FFE52A25E024CE
:1002FB0081F582E4341EF583E49325E02455F582E1
:10030B00E43401F583EFF0E52D02039DE52B25E0A9
:10031B002462F582E4341EF583E493FFE52A25E09D
:10032B002480F582E4341EF583E49325E02455F50F
:10033B0082E43401F583EFF0E52B25E02463F582AD
:10034B00E4341EF583E493FFE52A25E02480F5824F
:10035B00E4341EF583E49325E02456F582E434015E
:10036B00F583EFF0E52C25E02462F582E4341EF5ED
:10037B0083E493FFE52A25E02481F582E4341EF51E
:10038B0083E49325E02455F582E43401F583EFF003
:10039B00E52C25E02463F582E4341EF583E49344D5
:1003AB0008FFE52A25E02481F582E4341EF583E479
:1003BB009325E02456F582E43401F583EFF0052A0A
:1003CB00020216E4F52AC3E52A9405748094804052
:1003DB0003020724E52A75F007A4AB272529F9E5C5
:1003EB002835F0FA900004120A30F53085F02FE42E
:1003FB00F52E9000061209866053C3E53094E8E5AC
:10040B002F94034012752E01AE2FAF307C007D0A66
:10041B001209C58E2F8F30AE2FAF307C007D64124A
:10042B0009C58F2BAE2FAF307C007D641209C57EC2
:10043B00007F0ACFCDCFCECCCE1209C58F2CAE2FDD
:10044B00AF307C007D0A1209C58D2D8009E4F52B98
:10045B00F52CF52DF52E7435252AF8E4F6743A258E
:10046B002AF87601743F252AF8E4F6AF2BFEEF60ED
:10047B0003020502E52C707FE52D707BE52E70776E
:10048B00901E6293FDE52A25E0248AF582E4341E52
:10049B00F583E49325E02455F582E43401F583EDEF
:1004AB00F0E52A25E0248AF582E4341EF583E493F3
:1004BB0025E02456F582E43401F583EDF0E52A2599
:1004CB00E0248BF582E4341EF583E49325E0245578
:1004DB00F582E43401F583EDF0E52A25E0248BF574
:1004EB0082E4341EF583E49325E02456F582E4344C
:1004FB0001F583ED0205BFEF4E60030205CAE52E41
:10050B0060030205CAE52C25E02462F582E4341E63
:10051B00F583E493FFE52A25E0248AF582E4341E73
:10052B00F583E49325E02455F582E43401F583EF5C
:10053B00F0E52C25E02463F582E4341EF583E49387
:10054B00FFE52A25E0248AF582E4341EF583E49343
:10055B0025E02456F582E43401F583EFF0E52D25F3
:10056B00E02462F582E4341EF583E493FFE52A254B
:10057B00E0248BF582E4341EF583E49325E02455C7
:10058B00F582E43401F583EFF0E52D25E02463F5E6
:10059B0082E4341EF583E493FFE52A25E0248BF5F2
:1005AB0082E4341EF583E49325E02456F582E4348B
:1005BB0001F583EFF0743F252AF8760102071FD36C
:1005CB00E52B940074809480500302071FE52E6086
:1005DB0003020668E52B25E02462F582E4341EF560
:1005EB0083E493FFE52A25E0248AF582E4341EF5A3
:1005FB0083E49325E02455F582E43401F583EFF091
:10060B00E52B25E02463F582E4341EF583E493FFA8
:10061B00E52A25E0248AF582E4341EF583E493254C
:10062B00E02456F582E43401F583EFF0E52C25E068
:10063B002462F582E4341EF583E493FFE52A25E07A
:10064B00248BF582E4341EF583E49325E02455F5E1
:10065B0082E43401F583EFF0E52C0206F5743525C1
:10066B002AF87601E52C25E02462F582E4341EF5A8
:10067B0083E493FFE52A25E0248AF582E4341EF512
:10068B0083E49325E02455F582E43401F583EFF000
:10069B00E52C25E02463F582E4341EF583E493FF17
:1006AB00E52A25E0248AF582E4341EF583E49325BC
:1006BB00E02456F582E43401F583EFF0E52D25E0D7
:1006CB002462F582E4341EF583E493FFE52A25E0EA
:1006DB00248BF582E4341EF583E49325E02455F551
:1006EB0082E43401F583EFF0E52D25E02463F582F8
:1006FB00E4341EF583E493FFE52A25E0248BF58291
:10070B00E4341EF583E49325E02456F582E43401AA
:10071B00F583EFF0052A0203D1E4900167F0A3F013
:10072B00E53A64017004E04408F0E53664017007B3
:10073B00900168E04404F0E490015DF0A3F0E53C27
:10074B006401700790015DE04404F0E538640170CA
:10075B000790015DE04402F0E539640170079001F8
:10076B005DE04401F0E53764017013901E8E932514
:10077B00E02456F582E43401F583E04408F0E535D6
:10078B0064017013901E8A9325E02456F582E4349D
:10079B0001F583E04408F0E53F64017013901E8B74
:1007AB009325E02456F582E43401F583E04408F008
:1007BB00E54064017013901E8C9325E02456F5825E
:1007CB00E43401F583E04408F0E5416401701390D3
:1007DB001E8F9325E02456F582E43401F583E04423
:1007EB0008F0E54264017013901E909325E02456A7
:1007FB00F582E43401F583E04408F0E543640170CD
:10080B0013901E929325E02456F582E43401F58370
:10081B00E04408F0E53B64017013901E8D9325E0D6
:10082B002456F582E43401F583E04408F0E53D6499
:10083B00017013901E919325E02456F582E4340148
:10084B00F583E04408F0E53E64017013901E93932A
:10085B0025E02456F582E43401F583E04408F07B6F
:10086B00017A0179557D407C00021BE2E709F6080D
:10087B00DFFA8046E709F208DFFA803E88828C8334
:10088B00E709F0A3DFFA8032E309F608DFFA807894
:10089B00E309F208DFFA807088828C83E309F0A306
:1008AB00DFFA806489828A83E0A3F608DFFA805836
:1008BB0089828A83E0A3F208DFFA804C80D280FA27
:1008CB0080C680D4806980F28033801080A680EA55
:1008DB00809A80A880DA80E280CA803389828A83FA
:1008EB00ECFAE493A3C8C582C8CCC583CCF0A3C8EB
:1008FB00C582C8CCC583CCDFE9DEE7800D89828A4F
:10090B0083E493A3F608DFF9ECFAA9F0EDFB228957
:10091B00828A83ECFAE0A3C8C582C8CCC583CCF02D
:10092B00A3C8C582C8CCC583CCDFEADEE880DB89EF
:10093B00828A83E493A3F208DFF980CC88F0EF601E
:10094B00010E4E60C388F0ED2402B4040050B9F5DB
:10095B0082EB2402B4040050AF232345822390087A
:10096B00C773BB010689828A83E0225002E722BB50
:10097B00FE02E32289828A83E49322BB010CE58287
:10098B0029F582E5833AF583E0225006E92582F8C2
:10099B00E622BBFE06E92582F8E222E58229F582F2
:1009AB00E5833AF583E49322EF8DF0A4A8F0CF8C86
:1009BB00F0A428CE8DF0A42EFE22BC000BBE002985
:1009CB00EF8DF084FFADF022E4CCF875F008EF2F3B
:1009DB00FFEE33FEEC33FCEE9DEC984005FCEE9DF8
:1009EB00FE0FD5F0E9E4CEFD22EDF8F5F0EE842014
:1009FB00D21CFEADF075F008EF2FFFED33FD400775
:100A0B00985006D5F0F222C398FD0FD5F0EA22C517
:100A1B00F0F8A3E028F0C5F0F8E582158270021516
:100A2B0083E038F022BB0110E58229F582E5833A99
:100A3B00F583E0F5F0A3E0225009E92582F886F072
:100A4B0008E622BBFE0AE92582F8E2F5F008E2226D
:100A5B00E5832AF583E993F5F0A3E99322E88FF078
:100A6B00A4CC8BF0A42CFCE98EF0A42CFC8AF0ED2A
:100A7B00A42CFCEA8EF0A4CDA8F08BF0A42DCC38DE
:100A8B0025F0FDE98FF0A42CCD35F0FCEB8EF0A416
:100A9B00FEA9F0EB8FF0A4CFC5F02ECD39FEE43CD0
:100AAB00FCEAA42DCE35F0FDE43CFC2275F0087574
:100ABB008200EF2FFFEE33FECD33CDCC33CCC5828E
:100ACB0033C5829BED9AEC99E58298400CF582EE4A
:100ADB009BFEED9AFDEC99FC0FD5F0D6E4CEFBE432
:100AEB00CDFAE4CCF9A88222B800C1B90059BA00FA
:100AFB002DEC8BF084CFCECDFCE5F0CBF97818EF55
:100B0B002FFFEE33FEED33FDEC33FCEB33FB10D755
:100B1B0003994004EB99FB0FD8E5E4F9FA22781816
:100B2B00EF2FFFEE33FEED33FDEC33FCC933C91071
:100B3B00D7059BE99A4007EC9BFCE99AF90FD8E0A3
:100B4B00E4C9FAE4CCFB2275F010EF2FFFEE33FE75
:100B5B00ED33FDCC33CCC833C810D7079BEC9AE8E8
:100B6B0099400AED9BFDEC9AFCE899F80FD5F0DA69
:100B7B00E4CDFBE4CCFAE4C8F922EB9FF5F0EA9E56
:100B8B0042F0E99D42F0E89C45F022E8600FECC38F
:100B9B0013FCED13FDEE13FEEF13FFD8F122ECF077
:100BAB00A3EDF0A3EEF0A3EFF022A8828583F0D0A3
:100BBB0083D082120BCC120BCC120BCC120BCCE4CD
:100BCB0073E493A3C583C5F0C583C8C582C8F0A3DE
:100BDB00C583C5F0C583C8C582C822EC8EF0A4CCF2
:100BEB00C5F0CCCDF8EFA4CEC5F02DFDE43CFCE870
:100BFB00A42EC8C5F03DFDE43CFCEFA4FFE5F028B6
:100C0B00FEE43DFDE43CFC22E4F521C3E521940424
:100C1B00E494005032AF21121D0BE52125E0240096
:100C2B00F582E43400F583EEF0A3EFF0AF21121D53
:100C3B002AE52125E02408F582E43400F583EEF063
:100C4B00A3EFF0052180C4E4FF121A71900010EE9F
:100C5B00F0A3EFF0E4FF121BAF900012120BA97F71
:100C6B0001121A71900016EEF0A3EFF07F01121B28
:100C7B00AF900018120BA9E4F521C3E5219404E40D
:100C8B00940050507B007A007922AF21121B76E53D
:100C9B002175F00BA4241CF582E43400F583E522C6
:100CAB00F0A3E523F0AE24AF25E4FCFDE52175F0C0
:100CBB000BA4241EF582E43400F583120BA9E52165
:100CCB0075F00BA42426F582E43400F583E526F0B9
:100CDB00052180A6900016E0FFA3E0900048CFF01E
:100CEB00A3EFF0900018E0FCA3E0FDA3E0FEA3E06F
:100CFB00FF90004A120BA99000527401F0E4F52109
:100D0B00C3E5219405E494004003020EB4E521757C
:100D1B00F00BA4241CF582E43400F583E0FEA3E081
:100D2B00FFE4FCFDE52175F00BA4241EF582E434F1
:100D3B0000F583E0F8A3E0F9A3E0FAA3E0FB120AC5
:100D4B0068E47BE87A03F9F8120AF3E52175F00BF6
:100D5B00A42422F582E43400F583120BA9E5217556
:100D6B00F00BA4241EF582E43400F583E0FCA3E031
:100D7B00FDA3E0FEA3E0FFE47B64FAF9F8120AF3AB
:100D8B00E47BFF7AFFF9F8C3120B85E5215014754C
:100D9B00F007A42453F582E43400F58374FFF0A329
:100DAB00F0803575F00BA4241EF582E43400F58336
:100DBB00E0FCA3E0FDA3E0FEA3E0FFE47B64FAF913
:100DCB00F8120AF3E52175F007A42453F582E434F5
:100DDB0000F583EEF0A3EFF0E52175F00BA4241CD6
:100DEB00F582E43400F583E0FEA3E0FF7C007D6434
:100DFB001209C5E52175F007A42455F582E43400EA
:100E0B00F583EEF0A3EFF0E52175F00BA42422F5AA
:100E1B0082E43400F583E0FCA3E0FDA3E0FEA3E055
:100E2B00FFE47B64FAF9F8120AF3E47BFF7AFFF92B
:100E3B00F8C3120B85E521501475F007A42457F560
:100E4B0082E43400F58374FFF0A3F0803575F00B6A
:100E5B00A42422F582E43400F583E0FCA3E0FDA397
:100E6B00E0FEA3E0FFE47B64FAF9F8120AF3E52154
:100E7B0075F007A42457F582E43400F583EEF0A354
:100E8B00EFF0E52175F00BA42426F582E43400F590
:100E9B0083E0FFE52175F007A42459F582E43400C3
:100EAB00F583EFF00521020D0B7B017A00797712A8
:100EBB001C117B017A007993120026121E10EF6031
:100ECB000F900076E07F0070027F01900076EFF0CC
:100EDB00900076E0FF121E01121DDFC3EF954DFD52
:100EEB00EE954CFCC3ED9464EC9400400D8E4C8F4E
:100EFB004D7B017A00795312005E228D22A9077473
:100F0B001D29F8E6FF7021E52264A5600302102578
:100F1B00E975F00BA4243FF582E43401F583E52257
:100F2B00F0741D29F8760122E975F00BA4243FF526
:100F3B0082E43401F583E5822FF582E43583F58372
:100F4B00E522F00FEFC3940BE494005007741D29B6
:100F5B00F8A60722E975F00BA42449F582E43401C5
:100F6B00F583E0645A7078E975F00BA42440F582A0
:100F7B00E43401F583E0D39403E494005061AF01B2
:100F8B00121541E4FFEFC3940BE494005037E9755D
:100F9B00F00BA4243FF582E43401F583E5822FF5B1
:100FAB0082E43583F583E0FEE975F00BA42429F583
:100FBB0082E43401F583E5822FF582E43583F583F2
:100FCB00EEF00F80C0E925E02421F582E43401F531
:100FDB0083E475F001120A1A741D29F8E4F622E96C
:100FEB0025E02425F582E43401F583E475F0011244
:100FFB000A1AE52264A57F0070027F01741D29F88F
:10100B00A607741D29F8E66011E975F00BA4243FBF
:10101B00F582E43401F583E522F022900076740129
:10102B00F01213D2E4FBEBC39404E494005023EBD3
:10103B0025E02400F582E43400F583E4F0A3F0EB23
:10104B0025E02408F582E43400F583E4F0A3F00BEB
:10105B0080D4E4FBEBC39405748094805049EB750A
:10106B00F007A42453F582E43400F583E4F0A3F0F5
:10107B00EB75F007A42455F582E43400F583E4F016
:10108B00A3F0EB75F007A42457F582E43400F58345
:10109B00E4F0A3F0EB75F007A42459F582E43400D7
:1010AB00F583E4F00B80ADE4FBEBC39405E4940013
:1010BB00504FEB75F00BA4241CF582E43400F58340
:1010CB00E4F0A3F0EB75F00BA4241EF582E43400DE
:1010DB00F583120BB500000000EB75F00BA4242276
:1010EB00F582E43400F583120BB500000000EB75BC
:1010FB00F00BA42426F582E43400F583E4F00B8096
:10110B00A8E4FBEBC39402E49400502AEB75F006C1
:10111B00A42410F582E43400F583E4F0A3F0EB751E
:10112B00F006A42412F582E43400F583120BB5000B
:10113B000000000B80CD021CE3C2ACE4FFEFC394B4
:10114B0002E49400507C74482FF8E4F6744A2FF8AC
:10115B00E4F6EF25E024B1F582E43400F583E4F006
:10116B00A3F0EF25E024B5F582E43400F583E4F039
:10117B00A3F0EF25E024B9F582E43400F583E4F025
:10118B00A3F0EF25E024BDF582E43400F583E4F011
:10119B00A3F0EF25E024C1F582E43400F583E4F0FD
:1011AB00A3F0EF25E024C5F582E43400F583E4F0E9
:1011BB00A3F074C92FF582E43400F583E4F00F0239
:1011CB001148E49000CBF0A3F090F0017405F0907F
:1011DB00F006E4F07D01FC7F06121B02E4FD7F01AB
:1011EB00121984E4FD7F0612198490F024E054FD5B
:1011FB00F053A9FDA3E0547FF090F024E054DFF00E
:10120B00E054EFF0C28EC28FC2AD53897F5389BFBA
:10121B00E58954CF4420F589758DE6758BE6E59805
:10122B00543F4440F598C29DD29CE59754DF44202F
:10123B00F597438780C298C29943B81053C0FD53AA
:10124B00C0BFD28ED2AC43A910D2AF22AC07ECD325
:10125B00940174809480400ED3E52594017480949E
:10126B00804003752501ECD3940174809480401F5A
:10127B00A8047401088002C333D8FCF45595FFA869
:10128B0004E525088002C333D8FC4FF5958020EC8C
:10129B0025E0FFF87403088002C333D8FCF455969D
:1012AB00FEA807E525088002C333D8FC4EF596A8A7
:1012BB00047401088002C333D8FCF45592FFA804D0
:1012CB00ED088002C333D8FC4FF592A804740108D3
:1012DB008002C333D8FCF45594FFAE03A804EE0888
:1012EB008002C333D8FC4FF594AF02A804EF0880FB
:1012FB0002C333D8FCFFA8047401088002C333D89F
:10130B00FCFEF455934FF593EE429122EFB4090096
:10131B0040030213C5901327F828287302134202C7
:10132B00134D02135D02136D02137D02138D021315
:10133B009D0213AD0213BD90F00E741FF053B2F06B
:10134B00807890F00D741FF0E5B254F04401F5B2C3
:10135B00806890F007741FF0E5B254F04402F5B2C8
:10136B00805890F006741FF0E5B254F04403F5B2C8
:10137B00804890F005741FF0E5B254F04404F5B2C8
:10138B00803890F004741FF0E5B254F04405F5B2C8
:10139B00802890F003741FF0E5B254F04406F5B2C8
:1013AB00801890F002741FF0E5B254F04407F5B2C8
:1013BB008008E5B254F04408F5B2EDC454F0FFE5F3
:1013CB00B2540F4FF5B222E4FFEFC39402E4940042
:1013DB00506A741D2FF8E4F6EF25E02421F582E422
:1013EB003401F583E4F0A3F0EF25E02425F582E446
:1013FB003401F583E4F0A3F0FEEEC3940BE4940008
:10140B005037EF75F00BA4243FF582E43401F583DC
:10141B00E5822EF582E43583F583E4F0EF75F00B6E
:10142B00A42429F582E43401F583E5822EF582E4C8
:10143B003583F583E4F00E80C00F808DE4FFEFC39E
:10144B009404E494005037EF75F005A4240DF58255
:10145B00E43401F583E4F0A3F0EF75F005A4240F59
:10146B00F582E43401F583E4F0A3F0EF75F005A405
:10147B002411F582E43401F583E4F00F80C022EFF0
:10148B0025E025E0FFC290C29100000000000000A3
:10149B0000D2920000000000000000D2910000007A
:1014AB000000000000C2910000000000000000C21C
:1014BB00920000000000000000D29100000000002C
:1014CB00000000C2910000000000000000D292005A
:1014DB0000000000000000D291000000000000009E
:1014EB0000E4FEEEC39406748094805017C291EF13
:1014FB003392920000000000000000D291EF25E033
:10150B00FF0E80DFE4FEEEC3940474809480501FC2
:10151B00C291ED1392920000000000000000D291E6
:10152B000000000000000000EDC313FD0E80D7C2C9
:10153B0091C292D29022EF75F00BA4243FF582E476
:10154B003401AD82F5238D24F583A3E0FBEF25E079
:10155B00FAE5242402121DCAEA75F005A4240DF540
:10156B0082E43401F583EEF0A3EFF0E524240412BA
:10157B001DCAEA75F005A4240FF582E43401F58346
:10158B00EEF0A3EFF0EB54017F0060027F01EA75F0
:10159B00F005A42411F582E43401F583EFF0E52482
:1015AB002406121DCAEA75F005A42412F582E43450
:1015BB0001F583EEF0A3EFF0E5242408121DCAEA2F
:1015CB0075F005A42414F582E43401F583EEF0A341
:1015DB00EFF0EB54027F0060027F01EA75F005A487
:1015EB002416F582E43401F583EFF022C290C29108
:1015FB000000000000000000D2920000000000007C
:10160B000000D2910000000000000000C291000019
:10161B00000000000000C29200000000000000006B
:10162B00D2910000000000000000C29100000000F9
:10163B0000000000C2920000000000000000D291E8
:10164B000000000000000000E4FEEEC3940874806C
:10165B0094805017C291EF3392920000000000006B
:10166B000000D291EF25E0FF0E80DFC29100000059
:10167B000000000000C2920000000000000000D239
:10168B00910000000000000000C29100000000006B
:10169B00000000D2902278FFE4F6D8FD9000007F86
:1016AB00007E02E4F0A3DFFCDEFA754E0075814E7E
:1016BB000216F9021D9EE493A3F8E493A34003F6EC
:1016CB008001F208DFF48029E493A3F85407240C7B
:1016DB00C8C333C4540F4420C8834004F45680015C
:1016EB0046F6DFE4800B0102040810204080901EB8
:1016FB0009E47E019360BCA3FF543F30E509541FFE
:10170B00FEE493A360010ECF54C025E060A840B85F
:10171B00E493A3FAE493A3F8E493A3C8C582C8CADD
:10172B00C583CAF0A3C8C582C8CAC583CADFE9DEB0
:10173B00E780BEC0E0C083C082C0D075D0083098AF
:10174B0075AE99C2989000B2E004F070069000B1AB
:10175B00E004F0E54804FDC39440E4940040027DAE
:10176B0000ED654A6042AC4874CD2CF582E4340040
:10177B00F583EEF08D489000C6E004F07006900003
:10178B00C5E004F0E548C3954A4007E548954AFF94
:10179B008008C37440954A2548FF9000C9E0FEEFCE
:1017AB00D39E4012EFF0800E9000B6E004F070066E
:1017BB009000B5E004F0309902C299D0D0D082D01D
:1017CB0083D0E032AA05E5E2540FFEEBD39E40072F
:1017DB00E5E254F04BF5E2EF14601B14602C24028D
:1017EB00703F539E3F539EF77547007546487545AE
:1017FB00E8754401802BE59E543F4440F59EE4F58B
:10180B004775467DF545F5448017439E08E59E5484
:10181B003F4480F59E75470075461275457A7544B1
:10182B0000E59E54F84AF59EE5E2540FFFEBC39F8B
:10183B005007E5E254F04BF5E2AF47AE46AD45AC91
:10184B0044AB02A803120B968F478E468D458C44F2
:10185B002290F00FE4F07D01FC7F07121B3C7D0210
:10186B007F071219D353C87FE47B02FAF9F8AF470D
:10187B00AE46AD45AC44120AF3E47BE87A03F9F8C3
:10188B00120AF38F248E238D228C21C3E49FFFE455
:10189B009EAD07FC53F4BFE5F454F84401F5F4AFE7
:1018AB0004EFF5F5AF05EFF5F653F47F53B9FB43B2
:1018BB00A90443F44043A910D2AFE4F51BF51CF582
:1018CB001AF519F5182290F008E4F0A3F0A3F0F53F
:1018DB00257B01FAFDFF121257E4F5257B01FAFD7A
:1018EB007F01121257E4F5257B01FAFD7F021212DC
:1018FB0057D290D291C2927F011215F77F03121526
:10190B00F77F181215F77FE31215F7E4FCECC3947D
:10191B004074809480500AAF04E4FD12148A0C804A
:10192B00EC22E51F901E9493FF7D01121317121DDD
:10193B0086121C93E51F25E02495F582E43401F50E
:10194B0083EEF0A3EFF07C0C7DE4120BE6E47BFF5F
:10195B007A0FF9F8120AF3E51F25E0249DF582E4CE
:10196B003401F583EEF0A3EFF0051FC3E51F9404DC
:10197B00E494004003E4F51F22EF25E0FEF8740326
:10198B00088002C333D8FCF455ABFCA806ED0880E5
:10199B0002C333D8FC4CF5ABEF1313543FFE75F079
:1019AB0003A4FCEF540325E0FBF8EC088002C333DF
:1019BB00D8FCF455AAFCEE8DF0A4FEA80308800217
:1019CB00C333D8FC4CF5AA22EF25E0FEF8740308CC
:1019DB008002C333D8FCF455ADFCA806ED08800299
:1019EB00C333D8FC4CF5ADEF1313543FFE75F00326
:1019FB00A4FCEF540325E0FBF8EC088002C333D8BA
:101A0B00FCF455ACFCEE8DF0A4FEA803088002C3D9
:101A1B0033D8FC4CF5AC22E4F51FF521C3E521943A
:101A2B0004E494005032E52125E02495F582E4345A
:101A3B0001F583E4F0A3F0E52125E0249DF582E494
:101A4B003401F583E4F0A3F0E521901E9493FF7D20
:101A5B0001121317052180C475E104121E1643AE43
:101A6B00807F01021D68EFD39401E494004004E4ED
:101A7B00FEFF22EF25E0249DF582E43401F583E09F
:101A8B00FEA3E0FF7C007D0B120BE68F2A8E298DC7
:101A9B00288C27E47FFF7EFFFDFCAB2AAA29A9280F
:101AAB00A827D3120B8540057EFF7FFF22AE29AFFF
:101ABB002A22EFC39402E49400500E744A2FF8E6E6
:101ACB00FE74482FF8E6B506037F0022744A2FF800
:101ADB00E624CDF582E43400F583E0FE744A2FF85A
:101AEB0006744A2FF8E6C39440E494004006744A07
:101AFB002FF8E4F6AF0622AB07A8037401088002A7
:101B0B00C333D8FCFAF4F955FDFFAE05A803EE0874
:101B1B008002C333D8FC4FF5FDAF04A803EF088058
:101B2B0002C333D8FCFFE5FC594FF5FCEAF452FA3B
:101B3B0022AB07A8037401088002C333D8FCFAF464
:101B4B00F95594FFAE05A803EE088002C333D8FC09
:101B5B004FF594AF04A803EF088002C333D8FCFF02
:101B6B00E593594FF593EAF45291228B278A2889F2
:101B7B0029EFC39404E494005008AC02AD01ED4C82
:101B8B0070037F0022EF75F005A4240DF974013565
:101B9B00F0FA7B01A829AC28AD277E007F0512093E
:101BAB00477F0122EFD39401E494004006E4FFFE4B
:101BBB00FDFC22EF240225E0249DF582E43401F59F
:101BCB0083E0FEA3E0FF7C037DE8120BE6E47B32AF
:101BDB00FAF9F8120AF3228C318D32E4F533F5342D
:101BEB00C3E5349532E5339531501AAF3412096D94
:101BFB00FD12148A740129F9E43AFA0534E53470BC
:101C0B00DF053380DB228B278A288929AE02AF01BF
:101C1B00EF4E601EA2AF9200C2AFA801AC02AD03A3
:101C2B007B017A0079B17E007F1C120947300002DC
:101C3B00D2AF22C0E0C0F0C083C082C0D075D0103C
:101C4B00E5C030E60353C0BFE5C830E70653C87F95
:101C5B0012004ED0D0D082D083D0F0D0E032C0E092
:101C6B00C0D075D000C00753F47F051CE51C700273
:101C7B00051BAF1AEF600A151AAF1AEF700375192F
:101C8B0001D007D0D0D0E032E5AE54407E006004E6
:101C9B007F0180027F00EF4E60EE53AEBFAFB4EF1B
:101CAB0075F010A4FFAEF0E5B5540FFDEF4DFF221C
:101CBB00E4F521C3E5219402E49400501AAF2112FC
:101CCB001D49EF600EAF21121ABDAD07AF21120FE8
:101CDB000680EA052180DC22E4FFEFC39440748088
:101CEB009480500F74552FF582E43401F583E4F0A2
:101CFB000F80E77B017A0179557D407C00021BE266
:101D0B00EFC39404E494004004E4FEFF22EF25E0CB
:101D1B002495F582E43401F583E0FEA3E0FF22EF86
:101D2B00C39404E494004004E4FEFF22EF25E02476
:101D3B009DF582E43401F583E0FEA3E0FF22EFC3BF
:101D4B009402E4940040037F0022744A2FF8E6FECD
:101D5B0074482FF8E66E7F0060027F0122E58954FC
:101D6B00FC4401F589D28CEF600E758CE0758AC04E
:101D7B00308DFDC28D1F80EFC28C22E5AE54107EDC
:101D8B000060047F0180027F00EF64014E60EC4332
:101D9B00AE1022120003121026121CBB12192D12A8
:101DAB000048121DF2120C1380EF90F00BE4F0F5CB
:101DBB00257B01FAFD7F031212577F01021E01FFE3
:101DCB00E43523FEAD07AC068D828C83E0FEA3E0E9
:101DDB00FDEDFF22A2AFE433C2AFAB1CAA1B24FF65
:101DEB0092AFAE02AF0322AF19EF6009E4F51920F1
:101DFB00970375180122EFC36001D3929322044419
:101E0B0001E8480000AF18E4F5182253AEDF220BAF
:101E1B000007050C0D0F000F0D0B0007050C0D0F28
:101E2B00000F0D0B0007050C0D0E060C0E060A0A13
:101E3B000E0E0E0E060C0E060A0A0E0E0E0E060CDB
:101E4B000E060A0E0E0804060D0A0D08070A0B0EE5
:101E5B000B080C0E0F0A0F070702010B060B050EE2
:101E6B00010D050D0703010F070F050C0D0E0F10CC
:101E7B001112131415161718191A1B1C1D1E1F0BE4
:0D1E8B000A0807060503020100070605040A
:00000001FF
