:100000000204B2BB010689828A83E0225002E72201
:10001000BBFE02E32289828A83E49322BB010CE5C2
:100020008229F582E5833AF583E0225006E92582AC
:10003000F8E622BBFE06E92582F8E222E58229F5F0
:1000400082E5833AF583E49322EF8DF0A4A8F0CF04
:100050008CF0A428CE8DF0A42EFE22BC000BBE0096
:1000600029EF8DF084FFADF022E4CCF875F008EFB5
:100070002FFFEE33FEEC33FCEE9DEC984005FCEEDA
:100080009DFE0FD5F0E9E4CEFD22EDF8F5F0EE840B
:1000900020D21CFEADF075F008EF2FFFED33FD40D0
:1000A00007985006D5F0F222C398FD0FD5F0EA224A
:1000B000E88FF0A4CC8BF0A42CFCE98EF0A42CFCEF
:1000C0008AF0EDA42CFCEA8EF0A4CDA8F08BF0A46D
:1000D0002DCC3825F0FDE98FF0A42CCD35F0FCEBCC
:1000E0008EF0A4FEA9F0EB8FF0A4CFC5F02ECD3991
:1000F000FEE43CFCEAA42DCE35F0FDE43CFC227588
:10010000F008758200EF2FFFEE33FECD33CDCC33F8
:10011000CCC58233C5829BED9AEC99E58298400C60
:10012000F582EE9BFEED9AFDEC99FC0FD5F0D6E43E
:10013000CEFBE4CDFAE4CCF9A88222B800C1B90024
:1001400059BA002DEC8BF084CFCECDFCE5F0CBF985
:100150007818EF2FFFEE33FEED33FDEC33FCEB337D
:10016000FB10D703994004EB99FB0FD8E5E4F9FAAB
:10017000227818EF2FFFEE33FEED33FDEC33FCC990
:1001800033C910D7059BE99A4007EC9BFCE99AF923
:100190000FD8E0E4C9FAE4CCFB2275F010EF2FFF92
:1001A000EE33FEED33FDCC33CCC833C810D7079BFC
:1001B000EC9AE899400AED9BFDEC9AFCE899F80F5F
:1001C000D5F0DAE4CDFBE4CCFAE4C8F922EB9FF5F4
:1001D000F0EA9E42F0E99D42F0E89C45F022E8609A
:1001E0000FECC313FCED13FDEE13FEEF13FFD8F17C
:1001F00022E4F50BF50AF509F508F50FF50EF50DF6
:10020000F50CF510F5117B037D01FF12054F120669
:10021000841206A47F051206C37F061202FD8F0B0F
:100220008E0A8D098C08E520B4AC2AE51FB40D2593
:10023000E4F5107FAC7E0DFDFCAB0BAA0AA909A862
:1002400008C31201CD500AC280751F137520888023
:1002500037D2808033E47F887E13FDFCAB0BAA0A83
:10026000A909A808D31201CD40190510E510941E64
:10027000E49400400AD280751F0D7520AC8006C240
:10028000808005C280E4F5107F051202FD8F0F8E7D
:100290000E8D0D8C0CE522B4AC2AE521B40D25E4BD
:1002A000F5117FAC7E0DFDFCAB0FAA0EA90DA80CBD
:1002B000C31201CD500AC28175211375228880377F
:1002C000D2818033E47F887E13FDFCAB0FAA0EA998
:1002D0000DA80CD31201CD40190511E511941EE4AF
:1002E0009400400AD28175210D7522AC8006C2812E
:1002F0008005C281E4F5111206F902021974FFF5B6
:1003000013F514F515F516E4F517F518F519F51AA2
:10031000F51EF51DF51CF51B7D011203F7E4F51222
:10032000C3E512940AE4940050691206E112065CD7
:10033000AB07AA06E4FCFDE51E2FF51EE51D3EF504
:100340001DED351CF51CEC351BF51BC3EB9514EAB4
:100350009513500C8513158514168A138B14800D74
:10036000C3EB9516EA951550048A158B16D3EB95B9
:1003700018EA9517400C85171985181A8A178B18D3
:10038000800DD3EB951AEA951940048A198B1A054A
:1003900012808DAE13AF14AB07AA06EB2516FBEA4D
:1003A0003515FAE433F9E433F8E4FCFDEB2518FBEA
:1003B000EA3517FAED39F9EC38F8EB251AFBEA358E
:1003C00019FAED39F9EC38F8C3E51E9BF51EE51D69
:1003D0009AF51DE51C99F51CE51B98F51BE47FE8D3
:1003E0007E80AB1EAA1DA91CA81B1200B0E47BAD29
:1003F0007A07F9F802013BEFB4090040030204A5B3
:10040000900407F828287302042202042D02043DF8
:1004100002044D02045D02046D02047D02048D029B
:10042000049D90F00E741FF053B2F0807890F00DA0
:10043000741FF0E5B254F04401F5B2806890F00703
:10044000741FF0E5B254F04402F5B2805890F00603
:10045000741FF0E5B254F04403F5B2804890F00503
:10046000741FF0E5B254F04404F5B2803890F00403
:10047000741FF0E5B254F04405F5B2802890F00303
:10048000741FF0E5B254F04406F5B2801890F00203
:10049000741FF0E5B254F04407F5B28008E5B25499
:1004A000F04408F5B2EDC454F0FFE5B2540F4FF537
:1004B000B22278FFE4F6D8FD9000007F007E02E4CF
:1004C000F0A3DFFCDEFA75290075812902050A0216
:1004D00001F1E493A3F8E493A34003F68001F2084A
:1004E000DFF48029E493A3F85407240CC8C333C471
:1004F000540F4420C8834004F456800146F6DFE4DC
:10050000800B0102040810204080900710E47E0157
:100510009360BCA3FF543F30E509541FFEE493A34E
:1005200060010ECF54C025E060A840B8E493A3FA60
:10053000E493A3F8E493A3C8C582C8CAC583CAF0EC
:10054000A3C8C582C8CAC583CADFE9DEE780BEAAE0
:1005500005E5E2540FFEEBD39E4007E5E254F04B75
:10056000F5E2EF14601B14602C2402703F539E3F91
:10057000539EF77528007527487526E87525018074
:100580002BE59E543F4440F59EE4F52875277DF504
:1005900026F5258017439E08E59E543F4480F59E2E
:1005A00075280075271275267A752500E59E54F882
:1005B0004AF59EE5E2540FFFEBC39F5007E5E25476
:1005C000F04BF5E2AF28AE27AD26AC25AB02A80371
:1005D0001201DE8F288E278D268C2522AC07D3E5CD
:1005E000169401748094804003751601A804740168
:1005F000088002C333D8FCF455FBFFA804ED088043
:1006000002C333D8FC4FF5FBA8047401088002C371
:1006100033D8FCF455FDFFAE03A804EE088002C3F6
:1006200033D8FC4FF5FDAF02A804EF088002C333B6
:10063000D8FCFFA8047401088002C333D8FCFEF480
:10064000FD55FC4FF5FCE5FE5DFFA804E5160880AE
:1006500002C333D8FC4FF5FEEE42FA22E5AE544019
:100660007E0060047F0180027F00EF4E60EE53AE9B
:10067000BFAFB4EF75F010A4FFAEF0E5B5540FFDB9
:10068000EF4DFF2290F000E4F0A3F0F516FBFAFD29
:10069000FF1205DCE4F516FBFAFD7F011205DCC252
:1006A00080C281227D017F061203F77D017F051242
:1006B00003F753B1FE75E10412072343AE807F01B7
:1006C0000206C3E58954FC4401F589D28CEF600E23
:1006D000758CE0758AC0308DFDC28D1F80EFC28C95
:1006E00022E5AE54107E0060047F0180027F00EF9F
:1006F00064014E60EC43AE1022E4F512C3E512949F
:1007000001E4940050097F0A1206C3051280ED220D
:10071000042501E84800021F0BB802210BB8022390
:070720000FA00053AEDF2221
:00000001FF
