:1000000002046EBB010689828A83E0225002E72245
:10001000BBFE02E32289828A83E49322BB010CE5C2
:100020008229F582E5833AF583E0225006E92582AC
:10003000F8E622BBFE06E92582F8E222E58229F5F0
:1000400082E5833AF583E49322EF8DF0A4A8F0CF04
:100050008CF0A428CE8DF0A42EFE22BC000BBE0096
:1000600029EF8DF084FFADF022E4CCF875F008EFB5
:100070002FFFEE33FEEC33FCEE9DEC984005FCEEDA
:100080009DFE0FD5F0E9E4CEFD22EDF8F5F0EE840B
:1000900020D21CFEADF075F008EF2FFFED33FD40D0
:1000A00007985006D5F0F222C398FD0FD5F0EA224A
:1000B000E88FF0A4CC8BF0A42CFCE98EF0A42CFCEF
:1000C0008AF0EDA42CFCEA8EF0A4CDA8F08BF0A46D
:1000D0002DCC3825F0FDE98FF0A42CCD35F0FCEBCC
:1000E0008EF0A4FEA9F0EB8FF0A4CFC5F02ECD3991
:1000F000FEE43CFCEAA42DCE35F0FDE43CFC227588
:10010000F008758200EF2FFFEE33FECD33CDCC33F8
:10011000CCC58233C5829BED9AEC99E58298400C60
:10012000F582EE9BFEED9AFDEC99FC0FD5F0D6E43E
:10013000CEFBE4CDFAE4CCF9A88222B800C1B90024
:1001400059BA002DEC8BF084CFCECDFCE5F0CBF985
:100150007818EF2FFFEE33FEED33FDEC33FCEB337D
:10016000FB10D703994004EB99FB0FD8E5E4F9FAAB
:10017000227818EF2FFFEE33FEED33FDEC33FCC990
:1001800033C910D7059BE99A4007EC9BFCE99AF923
:100190000FD8E0E4C9FAE4CCFB2275F010EF2FFF92
:1001A000EE33FEED33FDCC33CCC833C810D7079BFC
:1001B000EC9AE899400AED9BFDEC9AFCE899F80F5F
:1001C000D5F0DAE4CDFBE4CCFAE4C8F922EB9FF5F4
:1001D000F0EA9E42F0E99D42F0E89C45F022E8609A
:1001E0000FECC313FCED13FDEE13FEEF13FFD8F17C
:1001F00022E4F50BF50AF509F508F50FF50EF50DF6
:10020000F50CF513F512F511F510F514F515F516B5
:100210007B037D01FF12050B1206701206C77F06D5
:100220001206188F0B8E0A8D098C08E51464017074
:100230001C7FE87E03FDFCAB0BAA0AA909A808C332
:100240001201CD5008751C05751DDC8020E5146475
:1002500001701A7FDC7E05FDFCAB0BAA0AA909A878
:1002600008D31201CD4006751C03751DE8AE1CAF06
:100270001DE4FCFDAB0BAA0AA909A808D31201CD05
:100280004003D38001C39280AE1CAF1DE4FCFDABE4
:100290000BAA0AA909A808D31201CD7F0040027F4A
:1002A000018F147F051206188F0F8E0E8D0D8C0C8A
:1002B000E5156401701C7FE87E03FDFCAB0FAA0E00
:1002C000A90DA80CC31201CD5008751E05751FDCC1
:1002D0008020E5156401701A7FDC7E05FDFCAB0F04
:1002E000AA0EA90DA80CD31201CD4006751E0375E8
:1002F0001FE8AE1EAF1FE4FCFDAB0FAA0EA90DA8B0
:100300000CD31201CD4003D38001C39281AE1EAF46
:100310001FE4FCFDAB0FAA0EA90DA80CD31201CD52
:100320007F0040027F018F157F041206188F138E05
:10033000128D118C10E5166401701C7FE87E03FDA0
:10034000FCAB13AA12A911A810C31201CD50087555
:1003500020057521DC8020E5166401701A7FDC7EA3
:1003600005FDFCAB13AA12A911A810D31201CD40B0
:10037000067520037521E8AE20AF21E4FCFDAB1328
:10038000AA12A911A810D31201CD4003D38001C332
:100390009282AE20AF21E4FCFDAB13AA12A911A8F2
:1003A00010D31201CD7F0040027F018F1612072368
:1003B00002021EEFB4090040030204619003C3F877
:1003C0002828730203DE0203E90203F9020409028A
:1003D000041902042902043902044902045990F064
:1003E0000E741FF053B2F0807890F00D741FF0E59A
:1003F000B254F04401F5B2806890F007741FF0E544
:10040000B254F04402F5B2805890F006741FF0E543
:10041000B254F04403F5B2804890F005741FF0E543
:10042000B254F04404F5B2803890F004741FF0E543
:10043000B254F04405F5B2802890F003741FF0E543
:10044000B254F04406F5B2801890F002741FF0E543
:10045000B254F04407F5B28008E5B254F04408F510
:10046000B2EDC454F0FFE5B2540F4FF5B22278FF5D
:10047000E4F6D8FD9000007F007E02E4F0A3DFFCEC
:10048000DEFA7526007581260204C60201F1E493A6
:10049000A3F8E493A34003F68001F208DFF4802977
:1004A000E493A3F85407240CC8C333C4540F442066
:1004B000C8834004F456800146F6DFE4800B010255
:1004C00004081020408090073AE47E019360BCA3AA
:1004D000FF543F30E509541FFEE493A360010ECFA3
:1004E00054C025E060A840B8E493A3FAE493A3F8CD
:1004F000E493A3C8C582C8CAC583CAF0A3C8C5828D
:10050000C8CAC583CADFE9DEE780BEAA05E5E254B2
:100510000FFEEBD39E4007E5E254F04BF5E2EF14FB
:10052000601B14602C2402703F539E3F539EF7754E
:1005300025007524487523E8752201802BE59E541B
:100540003F4440F59EE4F52575247DF523F5228092
:1005500017439E08E59E543F4480F59E752500751F
:10056000241275237A752200E59E54F84AF59EE51B
:10057000E2540FFFEBC39F5007E5E254F04BF5E266
:10058000AF25AE24AD23AC22AB02A8031201DE8F4F
:10059000258E248D238C2222AC07D3E51B94017475
:1005A0008094804003751B01A8047401088002C375
:1005B00033D8FCF455FBFFA804ED088002C333D800
:1005C000FC4FF5FBA8047401088002C333D8FCF487
:1005D00055FDFFAE03A804EE088002C333D8FC4FDC
:1005E000F5FDAF02A804EF088002C333D8FCFFA8D2
:1005F000047401088002C333D8FCFEF4FD55FC4F9F
:10060000F5FCE5FE5DFFA804E51B088002C333D8B6
:10061000FC4FF5FEEE42FA22E4F51BF51AF519F54A
:10062000187D011203B3E4F517C3E517940AE494A7
:1006300000502112070B12069FE4FCFDE51B2FF56D
:100640001BE51A3EF51AED3519F519EC3518F518B4
:10065000051780D5E47FE87E80FDFCAB1BAA1AA9B4
:1006600019A8181200B0E47BFE7A1FF9F802013BCA
:1006700090F000E4F0A3F0A3F0F51BFBFAFDFF12ED
:100680000598E4F51BFBFAFD7F01120598E4F51BC4
:10069000FBFAFD7F02120598C280C281C28222E568
:1006A000AE54407E0060047F0180027F00EF4E6008
:1006B000EE53AEBFAFB4EF75F010A4FFAEF0E5B5EA
:1006C000540FFDEF4DFF227D017F061203B37D0124
:1006D0007F051203B37D017F041203B353B1FE758E
:1006E000E10412074D43AE807F010206EDE5895417
:1006F000FC4401F589D28CEF600E758CE0758AC0E0
:10070000308DFDC28D1F80EFC28C22E5AE54107E6D
:100710000060047F0180027F00EF64014E60EC43C3
:10072000AE1022E4F517C3E5179402E494005009D3
:100730007F641206ED051780ED22042201E84800CF
:10074000021C03E8021E03E8022003E80053AEDFA8
:010750002286
:00000001FF
