:100000000204BDBB010689828A83E0225002E722F6
:10001000BBFE02E32289828A83E49322BB010CE5C2
:100020008229F582E5833AF583E0225006E92582AC
:10003000F8E622BBFE06E92582F8E222E58229F5F0
:1000400082E5833AF583E49322EF8DF0A4A8F0CF04
:100050008CF0A428CE8DF0A42EFE22BC000BBE0096
:1000600029EF8DF084FFADF022E4CCF875F008EFB5
:100070002FFFEE33FEEC33FCEE9DEC984005FCEEDA
:100080009DFE0FD5F0E9E4CEFD22EDF8F5F0EE840B
:1000900020D21CFEADF075F008EF2FFFED33FD40D0
:1000A00007985006D5F0F222C398FD0FD5F0EA224A
:1000B000E88FF0A4CC8BF0A42CFCE98EF0A42CFCEF
:1000C0008AF0EDA42CFCEA8EF0A4CDA8F08BF0A46D
:1000D0002DCC3825F0FDE98FF0A42CCD35F0FCEBCC
:1000E0008EF0A4FEA9F0EB8FF0A4CFC5F02ECD3991
:1000F000FEE43CFCEAA42DCE35F0FDE43CFC227588
:10010000F008758200EF2FFFEE33FECD33CDCC33F8
:10011000CCC58233C5829BED9AEC99E58298400C60
:10012000F582EE9BFEED9AFDEC99FC0FD5F0D6E43E
:10013000CEFBE4CDFAE4CCF9A88222B800C1B90024
:1001400059BA002DEC8BF084CFCECDFCE5F0CBF985
:100150007818EF2FFFEE33FEED33FDEC33FCEB337D
:10016000FB10D703994004EB99FB0FD8E5E4F9FAAB
:10017000227818EF2FFFEE33FEED33FDEC33FCC990
:1001800033C910D7059BE99A4007EC9BFCE99AF923
:100190000FD8E0E4C9FAE4CCFB2275F010EF2FFF92
:1001A000EE33FEED33FDCC33CCC833C810D7079BFC
:1001B000EC9AE899400AED9BFDEC9AFCE899F80F5F
:1001C000D5F0DAE4CDFBE4CCFAE4C8F922EB9FF5F4
:1001D000F0EA9E42F0E99D42F0E89C45F022E8609A
:1001E0000FECC313FCED13FDEE13FEEF13FFD8F17C
:1001F00022E4F50BF50AF509F508F50FF50EF50DF6
:10020000F50CF510F5117B037D01FF12055A12065E
:10021000B31206D3E4FB7D017F0F12068F7F01121C
:1002200007527F051206F27F061203088F0B8E0A13
:100230008D098C08AE1FAF20E4FCFDAB0BAA0AA908
:1002400009A808D31201CD4003D38001C39280A234
:1002500080E433F510701C7FB87E0BFDFCAB0BAA5D
:100260000AA909A808C31201CD5008751F137520EB
:10027000888020E5106401701A7F887E13FDFCAB36
:100280000BAA0AA909A808D31201CD4006751F0BB5
:100290007520B87F051203088F0F8E0E8D0D8C0C04
:1002A000AE21AF22E4FCFDAB0FAA0EA90DA80CD322
:1002B0001201CD4003D38001C39281A281E433F5C2
:1002C00011701C7FB87E0BFDFCAB0FAA0EA90DA808
:1002D0000CC31201CD50087521137522888020E5CA
:1002E000116401701A7F887E13FDFCAB0FAA0EA962
:1002F0000DA80CD31201CD400675210B7522B81242
:10030000072812076202022774FFF513F514F5158A
:10031000F516E4F517F518F519F51AF51EF51DF59E
:100320001CF51B7D01120402E4F512C3E512940AC8
:10033000E494005069120710120667AB07AA06E49E
:10034000FCFDE51E2FF51EE51D3EF51DED351CF5EA
:100350001CEC351BF51BC3EB9514EA9513500C856B
:1003600013158514168A138B14800DC3EB9516EAAA
:10037000951550048A158B16D3EB9518EA951740FE
:100380000C85171985181A8A178B18800DD3EB95D1
:100390001AEA951940048A198B1A0512808DAE133A
:1003A000AF14AB07AA06EB2516FBEA3515FAE433C2
:1003B000F9E433F8E4FCFDEB2518FBEA3517FAED18
:1003C00039F9EC38F8EB251AFBEA3519FAED39F969
:1003D000EC38F8C3E51E9BF51EE51D9AF51DE51CDE
:1003E00099F51CE51B98F51BE47FE87E80AB1EAAFF
:1003F0001DA91CA81B1200B0E47BAD7A07F9F80216
:10040000013BEFB4090040030204B0900412F82845
:10041000287302042D02043802044802045802041E
:10042000680204780204880204980204A890F00E7E
:10043000741FF053B2F0807890F00D741FF0E5B2A5
:1004400054F04401F5B2806890F007741FF0E5B2F3
:1004500054F04402F5B2805890F006741FF0E5B2F3
:1004600054F04403F5B2804890F005741FF0E5B2F3
:1004700054F04404F5B2803890F004741FF0E5B2F3
:1004800054F04405F5B2802890F003741FF0E5B2F3
:1004900054F04406F5B2801890F002741FF0E5B2F3
:1004A00054F04407F5B28008E5B254F04408F5B2C0
:1004B000EDC454F0FFE5B2540F4FF5B22278FFE4DB
:1004C000F6D8FD9000007F007E02E4F0A3DFFCDEA2
:1004D000FA7529007581290205150201F1E493A33B
:1004E000F8E493A34003F68001F208DFF48029E4E6
:1004F00093A3F85407240CC8C333C4540F4420C832
:10050000834004F456800146F6DFE4800B010204C8
:10051000081020408090073FE47E019360BCA3FF59
:10052000543F30E509541FFEE493A360010ECF54FD
:10053000C025E060A840B8E493A3FAE493A3F8E4EC
:1005400093A3C8C582C8CAC583CAF0A3C8C582C858
:10055000CAC583CADFE9DEE780BEAA05E5E2540F1B
:10056000FEEBD39E4007E5E254F04BF5E2EF14605A
:100570001B14602C2402703F539E3F539EF7752836
:10058000007527487526E8752501802BE59E543FA8
:100590004440F59EE4F52875277DF526F52580175E
:1005A000439E08E59E543F4480F59E7528007527BC
:1005B0001275267A752500E59E54F84AF59EE5E207
:1005C000540FFFEBC39F5007E5E254F04BF5E2AF49
:1005D00028AE27AD26AC25AB02A8031201DE8F287A
:1005E0008E278D268C2522AC07D3E51694017480C6
:1005F00094804003751601A8047401088002C33377
:10060000D8FCF455FBFFA804ED088002C333D8FCE6
:100610004FF5FBA8047401088002C333D8FCF455DD
:10062000FDFFAE03A804EE088002C333D8FC4FF5EB
:10063000FDAF02A804EF088002C333D8FCFFA80472
:100640007401088002C333D8FCFEF4FD55FC4FF55D
:10065000FCE5FE5DFFA804E516088002C333D8FC64
:100660004FF5FEEE42FA22E5AE54407E0060047F74
:100670000180027F00EF4E60EE53AEBFAFB4EF7566
:10068000F010A4FFAEF0E5B5540FFDEF4DFF22E5ED
:100690009B54F04FF59BEDC43333335480FFE59CFE
:1006A000547F4FF59CEBC43354E0FFE59C549F4FBF
:1006B000F59C2290F000E4F0A3F0F516FBFAFDFFA4
:1006C0001205E7E4F516FBFAFD7F011205E7C2808B
:1006D000C281227D017F061204027D017F05120482
:1006E0000253B1FE75E10412076E43AE807F010232
:1006F00006F2E58954FC4401F589D28CEF600E7551
:100700008CE0758AC0308DFDC28D1F80EFC28C22B7
:10071000E5AE54107E0060047F0180027F00EF642C
:10072000014E60EC43AE1022E4F512C3E5129403CF
:10073000E4940050097F641206F2051280ED220451
:100740002501E84800021F0BB802210BB802230B59
:10075000B800EFC43333335480FFE59B547F4FF52B
:100760009B22E59B54C064C07003539BBF2253AED1
:02077000DF2286
:00000001FF
